:020000040800F2
:10000000B80C00204D020008C72900080728000886
:10001000C5290008BD160008C943000800000000FB
:10002000000000000000000000000000AF2B0008EE
:10003000BF16000800000000E9290008F93E00088A
:1000400067020008670200086702000867020008EC
:1000500067020008670200086702000867020008DC
:1000600067020008670200086702000867020008CC
:1000700067020008670200086702000867020008BC
:1000800067020008670200086702000867020008AC
:10009000670200086702000867020008670200089C
:1000A000670200086702000867020008670200088C
:1000B00067020008513F0008670200086702000855
:1000C000670200086702000867020008670200086C
:1000D00067020008670200085D4300086702000825
:1000E000670200086702000867020008670200084C
:1000F000670200086702000867020008670200083C
:10010000670200086702000867020008670200082B
:10011000670200086702000867020008670200081B
:10012000670200086702000867020008670200080B
:1001300067020008670200086702000867020008FB
:1001400067020008670200086702000867020008EB
:1001500067020008670200086702000867020008DB
:1001600067020008670200086702000867020008CB
:10017000670200086702000867020008000000002C
:10018000670200086702000800F002F800F04FF86C
:100190000AA090E8000C82448344AAF10107DA45E2
:1001A00001D100F044F8AFF2090EBAE80F0013F0E5
:1001B000010F18BFFB1A43F0010318473C5200001F
:1001C0005C520000103A24BF78C878C1FAD85207B0
:1001D00024BF30C830C144BF04680C6070470000C1
:1001E0000023002400250026103A28BF78C1FBD840
:1001F000520728BF30C148BF0B607047662904F022
:10020000C887642900F0A080732900F08B84002047
:1002100070471FB504F0B8FF00F0F4FC04000020A4
:10022000002104F053FAE0601FBD10B510BD00F0CE
:1002300001FE1146FFF7EDFF04F026F900F01FFE66
:1002400003B4FFF7F2FF03BC04F0DEF8094880476F
:1002500009480047FEE7FEE7FEE7FEE7FEE7FEE7A8
:10026000FEE7FEE7FEE7FEE704480549054A064BC0
:1002700070470000FD3E000889010008B805002015
:10028000B80C0020B8080020B80800207047000013
:100290000FB4044910B503AA029800F047FC10BC43
:1002A0005DF814FB1800002070B5044685690068ED
:1002B000C10601D5302600E02026C00707D070BD5A
:1002C000D4E9012130469047206A401C20626D1E0F
:1002D000F6D570BD70B5044685690078C00707D1B2
:1002E00070BDD4E9012120209047206A401C206283
:1002F0006D1EF6D570BD70B50C460546012A05D0B9
:100300002878800600D5EA69002302E0012305E091
:100310005B1C934202D2E05C0028F9D1A869E61880
:10032000C01AA861286A184428622846FFF7BCFF53
:1003300004E0D5E9012114F8010B9047B442F8D349
:100340002846FFF7C7FF70BD2DE9F041064600249F
:1003500010687529314616A510D0AFF3008000282B
:1003600002DA404213A507E031688A0701D512A5D9
:1003700002E0490704D511A5012401E0AFF3008094
:1003800000210A2206F1240709E0B0FBF2FCB0FBD1
:10039000F2F302FB1C00303078541846491C002848
:1003A000F3D123462A463046BDE8F04100F042B979
:1003B000000000002D0000002B00000020000000C5
:1003C0002DE9F0474FF0000A89460446C0F820A006
:1003D0002046E1688847002876D0252806D0D4E951
:1003E00001219047206A401C2062F1E7E168204625
:1003F00000268847C4F81CA005460027C4F818A0AA
:100400002A2D09D0284603F0F8FF38B304EB8708FB
:10041000303DC8F8185019E059F8041B204604EB89
:1004200087029161E1688847012F054618D1E0698C
:10043000002820DA26F020061DE0D8F8180000EB8E
:10044000800005EB40003038C8F818002046E1680D
:100450008847054603F0D1FF0028EED1012F0AD0CE
:100460002E2D08D12046E16888477F1C0546022FC3
:1004700046F02006C4DBA069002803DA404246F0BB
:100480000106A061F00701D026F010066C2D0AD0FD
:10049000682D08D04C2D39D06A2D35D0742D35D02B
:1004A0007A2D33D016E0E1682F4620468847B842BF
:1004B00005460AD16C2F27D04FF48060E1680643CF
:1004C00020468847054605E027E06C2F1AD04FF4F8
:1004D000807006430DB3A5F14100192802D82035DC
:1004E00046F400664A462946204626604E46FFF7F7
:1004F00085FE80B101280BD0F61D26F0070000F123
:10050000080965E74020E4E78020D7E70020D5E729
:1005100006F104095CE7284661E7206ABDE8F08738
:1005200010B5431C02E010F8011B71B18107FAD12C
:100530004FF0013202C88C1A8C4314EAC211F9D070
:10054000C01A0A0603D0C01E10BDC01A10BD0A048E
:1005500001D0801E10BD0902FCD0401E10BD032A30
:1005600040F2308010F0030C00F0158011F8013BD0
:10057000BCF1020F624498BF11F801CB00F8013BB7
:1005800038BF11F8013BA2F1040298BF00F801CB7B
:1005900038BF00F8013B11F0030300F0D982083A9C
:1005A000C0F0088051F8043B083A51F804CBA0E8A9
:1005B0000810F5E7121D5CBF51F8043B40F8043BFE
:1005C000AFF30080D20724BF11F8013B11F801CB33
:1005D00048BF11F8012B24BF00F8013B00F801CB04
:1005E00048BF00F8012B70474FF000020429C0F00B
:1005F000128010F0030C00F0DF82CCF1040CBCF18F
:10060000020F18BF00F8012BA8BF20F8022BA1EBA6
:100610000C0100F0D1BA5FEAC17C24BF00F8012BC5
:1006200000F8012B48BF00F8012B70477047704756
:10063000704770472DE9F0470D46994692460446AB
:1006400000F124080168880604D5E06921F0100152
:10065000216000E00120A84201DD471B00E00027E7
:10066000A1697A1902EB0900081AA0612078C00676
:1006700002D42046FFF718FE002608E0D4E9012145
:100680001AF806009047206A401C761C20624E45EE
:10069000F4DB2078C0060AD52046FFF705FE06E009
:1006A000D4E9012130209047206A401C2062381E86
:1006B000A7F10107F4DC07E0D4E9012118F80500EF
:1006C0009047206A401C2062281EA5F10105F3DC3A
:1006D0002046FFF7FFFD2078000602D50220BDE886
:1006E000F0870120FBE770472DE9FF4F0C461E46BF
:1006F0004FF0FF378BB0D2E90001DDF860800A903F
:100700008A46C1F30A5505B93D46002108464FF017
:100710000000BAF1000F00F4400005DA00EB8000A1
:100720004FF4400101EA50004FEA9059B9F1010F2E
:1007300000DDB9460A9850EA4A000ED044F610503F
:10074000A5F2FF3545432F14B8F1000F1ED07542B6
:10075000291E1EDDC9F100021CE0B8F1010F4FF0A7
:10076000000001D0302103E0F24305E02154401C99
:10077000B042FBDB30460022002121540B99C1F826
:100780000880C1E900200FB0BDE8F08FBD1B6D1CD3
:10079000DEE74A4600DA694206A800F0D5FA06AB61
:1007A00093E8070003AB83E8070050460A9900F07E
:1007B000ADFB8DE80700A0F500501F3800900398AE
:1007C000002D09DD42F21F014A46084403A90390A7
:1007D000684600F00CFE08E0A0F500504A461F38BD
:1007E00003A90390684600F016FE8DE80700000498
:1007F000000C03D04FF0FF30410800E01046B8F184
:10080000000F03D00022009215461EE0751E05D48D
:1008100000F0FCF9303262556D1EF9D5B346012265
:10082000084302D000227F1C04E02078302801D148
:1008300000227F1E002A099786D01DE0112D07DABD
:1008400000F0E4F9303262556D1C50EA0102F5D136
:10085000084302D00098C8B10EE00021681E05E0F0
:10086000235C625C63542254401E491C8142F7DBC6
:10087000AB46A81B401E0990002004F80B000B9803
:10088000099AC0F80880C0E9002B7CE711264FF0D8
:10089000000859E72DE9F04F88460446D21D22F0A2
:1008A000070191B0D1E90001CDE90A0103F08DFD06
:1008B00002460B98C00F01D02D2007E02068810769
:1008C00001D52B2002E0202101EAC000032A099073
:1008D00001D0072A05DB03464146204600F0F4F923
:1008E0000BE12078800601D5E06900E00620B8F130
:1008F000650F814606D0B8F1660F18D0B8F1670FC2
:1009000070D131E00020B9F1110F009001DB11230B
:1009100001E009F101030AAA01A90CA8FFF7E4FE0E
:10092000DDE90C70002609F10105834647E001204E
:100930004B4600904FF000470AAA01A90CA8FFF708
:10094000D3FEDDE90DB00C995D46002610B909F122
:1009500001000D18B9EB050003D4C0F1FF3609F111
:100960000105A5EB09002BE0B9F1010F01DA4FF009
:1009700001090020B9F1110F0090484601DD112353
:1009800000E003460AAA01A90CA8FFF7ADFEDDE9C5
:100990000C704D4600268346207800070AD4AB45EC
:1009A00000DA5D4601A8012D04DD411911F8011C92
:1009B000302907D04F4502DA17F1040F04DA01207D
:1009C00082460FE06D1EEEE7002F02DCED1B3E4479
:1009D00003E0781CA84200DD7D1CB81B00F1010A71
:1009E0004FF000472078000703D4AA4501DB4FF001
:1009F000FF3A0021B7F1004F0DF143088DF8431085
:100A000024D002202B23002F01DA7F422D230A213C
:100A1000021EA0F1010000DC5FB197FBF1FC97FB27
:100A2000F1F201FB1C7C17460CF1300C08F801CDEB
:100A3000EEE7A8F1010003702188090501D54521E1
:100A400000E06521A0F1010800F8011C09980FA938
:100A5000A1EB0807FF1D00B10120411901EBEA706D
:100A6000A1693844081A401EA0612078C00602D44B
:100A70002046FFF719FC099828B1D4E901219047D5
:100A8000206A401C20622078C00622D52046FFF74D
:100A90000BFC1EE0002E04DBB34502DD01A8805DE7
:100AA00000E03020D4E901219047206A401C2062F8
:100AB000761CAAF101005FEA000A0AD100F0A2F850
:100AC000C0680168405CD4E901219047206A401C5D
:100AD0002062281EA5F10105DCDC07E0D4E9012134
:100AE00018F8010B9047206A401C2062381EA7F1BD
:100AF0000107F3DC2046FFF7EDFB032011B043E6CE
:100B000010B5436913B1AFF3008001E0FFF7F3FBC9
:100B1000012010BD127800F124010A7000224A70F1
:100B20000122EDE711684FF0FF32E9E7074B70B59E
:100B30000D467B4400F0B5F80446284600F072F9F3
:100B400010B14FF0FF3070BD204670BD3B39000042
:100B500010B5203AC0F00B80B1E81850203AA0E858
:100B60001850B1E81850A0E81850BFF4F5AF5FEA8C
:100B7000027C24BFB1E81850A0E8185044BF18C93F
:100B800018C0BDE810405FEA827C24BF51F8043BE6
:100B900040F8043B08BF7047D20728BF31F8023B3A
:100BA00048BF11F8012B28BF20F8023B48BF00F8CE
:100BB000012B70474FF0000200B51346944696464D
:100BC000203922BFA0E80C50A0E80C50B1F1200160
:100BD000BFF4F7AF090728BFA0E80C5048BF0CC00E
:100BE0005DF804EB890028BF40F8042B08BF70476C
:100BF00048BF20F8022B11F0804F18BF00F8012BDE
:100C000070470000004870477805002030B5B0F10B
:100C10000A024FEA900E71F100034EEA817EB0EBBA
:100C20000E0061EB91014FEA101E4EEA017E10EBBF
:100C30000E0041EB11114FEA102E4EEA016E10EB3F
:100C40000E0041EB11214FEA104E4EEA014E10EB1F
:100C50000E0041EB1141401841F100014FEAD00074
:100C600040EA41704FEAD10110EB80054FEA810460
:100C700044EA907444EB01046D1944EB0404521BE4
:100C8000A3414FF0000348BF0A3200D530BD401CDD
:100C900041F1000130BD000001694A1C0261087881
:100CA000704700B58FB0CDE90131002105910549AC
:100CB0007944CDE9031011466846FFF781FB0FB078
:100CC00000BD0000E5FFFFFF2DE9F0411F4604468F
:100CD00003260168072A01F4006004DB08B116A5A9
:100CE00005E016A503E008B115A500E015A521F063
:100CF00010002060A069C01EA0610FB1401EA0615D
:100D00002046FFF7D1FA4FB1D4E901213846904788
:100D1000206A401C2062C01C206206E0206AFAE7BC
:100D2000D4E9012115F8010B9047761EF8D2204630
:100D3000FFF7D0FABDE8F0814E414E006E616E00C3
:100D4000494E4600696E66002DE9F0478146164619
:100D50008AB0334878440DC88DE80D003048784497
:100D6000801C03AC0DC884E80D0041F69B3008449C
:100D7000372190FBF1F290FBF1F5A5F1800501FB25
:100D800012041B3C02D56442012000E00020DFF881
:100D900090A080460027FA44AAF1BE0A0DE0E007C1
:100DA00009D03246684607EB47010AEB810100F0A3
:100DB00032FB8DE8070064107F1C002CEFD1184F28
:100DC0007F44AC3F18E0E80714D007EB04100DF1A6
:100DD000180A90E80E008AE80E00C068F04201D1BF
:100DE00098190890324606A903A800F014FB03AB3B
:100DF00083E807006D10641C002DE4D1324669467B
:100E0000B8F1000F03A802D000F0F1FA01E000F001
:100E100002FBC9E90001C9F808200AB0BDE8F08763
:100E200088460000007B00F0800070470048704753
:100E3000580500207546FFF7F9FFAE4605006946E4
:100E4000534620F00700854618B020B5FFF70CFA8E
:100E5000BDE820404FF000064FF000074FF00008BB
:100E60004FF0000B21F00701AC46ACE8C009ACE83C
:100E7000C009ACE8C009ACE8C0098D46704704461B
:100E8000AFF300802046FFF7DBF900004FF0013C94
:100E900050F8042B51F8043B9A4221D1A2EB0C03E9
:100EA000934313EACC1317D150F8042B51F8043BA9
:100EB0009A4215D1A2EB0C03934313EACC130BD146
:100EC00050F8042B51F8043B9A4209D1A2EB0C03D1
:100ED000934313EACC13DBD04FF00000704700BF00
:100EE000D01A01BAB1FA81F101F0180122FA01F029
:100EF000CB40C1F12001DBB2C0B2C01A2CFA01F321
:100F0000D11A914311EAC311E6D170475FEA400C50
:100F100008BF91F0000F4FEA8C234FEAC12243EA49
:100F200051514FEA1C5018BF00F5F0404FEA300015
:100F300018BF41F000415FEA6C5C00F02980BCF111
:100F4000FF3F08BF40F080407047130C06BF1204FB
:100F50004FF0100C4FF0000C130E04BF12020CF1F6
:100F6000080C130F04BF12010CF1040C930F04BF03
:100F700092000CF1020CD30F04BF52000CF1010CD3
:100F800011464FF00002A0F11F00A0EB0C007047CB
:100F900011F0004F08BF704731F000413FF4D5AF6A
:100FA0000B0C06BF09044FF0100C4FF0000C0B0E99
:100FB00004BF09020CF1080C0B0F04BF09010CF16E
:100FC000040C8B0F04BF89000CF1020CCB0F04BF83
:100FD00049000CF1010CCCF12003A0EB0C0022FA2B
:100FE00003F302FA0CF241EA030100F10100704739
:100FF00020F07F4C80EA030023F07F47ACEB07032F
:1010000003F57C5300F0004003F1FF032DE9804914
:101010004FEA154B09B44FEA144325EA0B4E24EA74
:1010200003480FF2042606EB132749083E785FEACF
:10103000320203FB0667C7F5000707FB06F64FEA17
:1010400054374FEAD64606F1020607FB066CCCF190
:10105000005C4FEA1C472CEA074C07FB06F40CFB2C
:1010600006F504EB15464FEA961634BF00204FF004
:1010700000404FEAD13706FB07FC4FEA1C4C0CFB43
:101080000BF7D21B03FB0CF761EB07010CFB0EF710
:10109000B0EB074072EB17420CFB08F734BFA2EB32
:1010A0000742B2EB074261EB17414FEA0C444FEAAB
:1010B000910706FB07FC4FEA1C4C0CFB0BF7B0EB4F
:1010C000C74072EB573203FB0CF734BFA2EBC742A9
:1010D000B2EBC74261EB57310CFB0EF7B0EBC70028
:1010E00072EB57720CFB08F734BFA2EBC702B2EBEE
:1010F000C70261EB5771039F4FEA816141EA921188
:1011000004EBCC044FEAD1374FEA826206FB07FCBE
:1011100042EA90124FEA80604FEA1C4C0CFB0BF73E
:10112000D21B03FB0CF761EB07010CFB0EF7B0EBD6
:10113000074072EB17420CFB08F734BFA2EB0742E3
:10114000B2EB074261EB17414FEA8C554FEA91072A
:1011500004EB9C2406FB07FC4FEA1C4C0CFB0BF732
:10116000B0EBC74072EB573203FB0CF734BFA2EB76
:10117000C742B2EBC74261EB57310CFB0EF7B0EB45
:10118000C70072EB57720CFB08F734BFA2EBC70223
:10119000B2EBC70261EB577115EB4C254FEA816149
:1011A00041EA92114FEA82624FEAD13742EA901245
:1011B00006FB07FC44F100044FEA80604FEA1C4C38
:1011C0000CFB0BF7D21B03FB0CF761EB07010CFBCD
:1011D0000EF7B0EB074072EB17420CFB08F734BF79
:1011E000A2EB0742B2EB074261EB174115EB1C156E
:1011F0004FEA813141EA92414FEA823242EA90421B
:101200004FEA80304FEA0C7644F1000448EA034389
:101210004EEA0B484FF0000EB2EB080C71EB0307DF
:1012200024BF624639464EEB0E0E4FF0000B0018FD
:10123000524149414BEB0B0BB2EB080C71EB03072E
:101240007BF1000B24BF624639464EEB0E0E4FF089
:10125000000B0018524149414BEB0B0BB2EB080C51
:1012600071EB03077BF1000B24BF624639464EEB5E
:101270000E0E51EA020718BF46F0010616EB0E7675
:1012800055F1000254F1000103D5BDE88901BDE824
:101290000088BDE88901BDE80048B619524141EB1C
:1012A0000101A3F10103704780807F7E7D7C7B7A02
:1012B0007978777676757473727171706F6E6E6D02
:1012C0006C6C6B6A6A6968686766666564646363A8
:1012D00062616160605F5F5E5E5D5D5C5C5B5B5A2E
:1012E0005A5959585857575656555555545453539B
:1012F00052525251515050504F4F4F4E4E4D4D4DF6
:101300004C4C4C4B4B4B4A4A4A4949494848484740
:10131000474747464646454545444444444343437E
:101320004342424242414141002B26D4770021D022
:101330001CB54FEA370703B44FF010004FF010010F
:101340004FF000000FBCBDE810400BF1010BBBF1EA
:10135000010F08BF5FEA170722BF12F1010211F166
:1013600001014FF0004143F1000300F0004043EA67
:1013700000007047F9D35708DAE746EA064613F14A
:10138000400F4FEA16461FDD13F1200FDFBF164353
:101390000A46002120335B42C8D0C3F1200746EA49
:1013A000064602FA07F74FEA164646EA0706C3F171
:1013B000200722FA03F201FA07F721FA03F14FF0AE
:1013C000000342EA0702B1E746EA020646EA064699
:1013D0004FEA164646EA0106BCBF46EA0646360C08
:1013E0004FF000034FF000024FF000019EE72DE99F
:1013F000C048934630B491E8380007C831EA400C41
:1014000048BF34EA430C03D5FFF7F2FDFFF78CFF2A
:10141000F0BCBDE800882DE9C048934630B491E89F
:10142000380007C810F0804F08BF13F0804F03D179
:1014300000F005F8FFF778FFF0BCBDE8008820F069
:101440007F4780EA030023F07F4C07EB0C03A3F5F2
:101450007C5300F00040A3F1FE0392F0000F00F077
:10146000B38095F0000F00F077802DE901494FEA35
:1014700011404FEA144621EA004800FB06FC24EA2A
:10148000064708FB06F607FB08F800FB07F718EB12
:1014900006484CEB164C4FEA124B18EB07484FEA44
:1014A00015464CEB174022EA0B4E0BFB06FC25EAD7
:1014B00006470EFB06F607FB0EFE0BFB07F71EEBBF
:1014C000064E4CEB164C4FF000061EEB074E4CEB55
:1014D000174B18EB0B0840F1000018EB0E0B58EB04
:1014E000000840F100008F1A4FF000013CBFC943D3
:1014F000661B14BFB5EB040C00213CBFC943F61BAF
:101500004FEA17444EEA8E0E27EA04454FEA1C477D
:1015100004FB07622CEA074C05FB07F70CFB05F6FA
:1015200004FB0CFC16EB074642EB174216EB0C468D
:1015300042EB1C421BEB060658EB0202414146EA15
:101540009E0601D5BDE80189B619524141EB010162
:10155000A3F10103BDE801894FEA14454FEA1147A1
:1015600024EA054621EA074C05FB07F406FB07F7CA
:101570000CFB06F105FB0CFC11EB074144EB174497
:101580004FEA124711EB0C4144EB1C4422EA074C92
:1015900005FB07F206FB07F70CFB06F605FB0CFC48
:1015A00016EB074642EB174216EB0C4642EB1C4586
:1015B0006A1854F1000148BF7047B619524141EB17
:1015C0000101A3F10103704795F0000F37D04FEAF6
:1015D00011424FEA144721EA024624EA074C02FB73
:1015E00007F106FB07F70CFB06F402FB0CFC14EBFF
:1015F000074441EB17414FEA154714EB0C4441EB0C
:101600001C4125EA074C02FB07F506FB07F70CFB1C
:1016100006F602FB0CFC16EB074645EB174516EBEE
:101620000C4645EB1C42121951F1000148BF7047AE
:10163000B619524141EB0101A3F1010370474FEA92
:1016400014454FEA114724EA054621EA074C05FBF9
:1016500007F106FB07F70CFB06F24FF0000605FB4F
:101660000CFC12EB074241EB174112EB0C4251EB21
:101670001C4148BF7047921841EB0101A3F10103DF
:10168000704700000B484FF47A710068B0FBF1F02E
:10169000401EB0F1807F0BD24FF0E0214861064A36
:1016A000F02082F8140D002088610720086170473F
:1016B000FEE70000080000200FE000E0FEE77047B2
:1016C0002DE9F84FDFF89491002209F1040A0AF19C
:1016D000040B4FF00F080BF1040E01260B68964027
:1016E0003340B34271D14C68022C01D0122C11D17D
:1016F000D40800EB84073D6A5407E40E08FA04FCA2
:1017000025EA0C05D1F810C00CFA04FC4CEA050CD3
:10171000C7F820C007685400032591F804C0A5400D
:101720000CF0030CAF430CFA04FC4CEA070CC0F8B5
:1017300000C04F68012F05D0022F03D0112F01D018
:10174000122F11D18768D1F80CC0AF430CFA04FCFA
:101750004CEA070CC0F808C04768B7430E79C6F3D7
:10176000001696403E434660C668AE438D68A5406D
:101770003543C5604C68E4006AD5394C256845F4AA
:1017800080452560246822F0030504F48044009419
:10179000344C2544D5F808789407260F08FA06F447
:1017A000A743314CA04201D1002429E02F4CA04294
:1017B00001D1012424E02E4CA04201D102241FE0DB
:1017C0002C4CA04202D103241AE041E02A4CA04252
:1017D00001D1042414E0294CA04201D105240FE0DA
:1017E000274CA04201D106240AE0264CA04201D198
:1017F000072405E0244CA04201D1082400E009247C
:10180000B4403C43C5F80848D9F800404D464E68FE
:101810009C43F60300D51C432C60DAF80040554683
:101820004E689C43B60300D51C432C60DBF8004097
:101830005D464E689C43F60200D51C432C60DEF8E2
:10184000004075464E689C43B60200D51C432C6090
:10185000521C102AFFF441AFBDE8F88F003C014054
:1018600044380240003001400000024000040240C1
:1018700000080240000C0240001002400014024028
:1018800000180240001C024000200240006908408D
:1018900000D0012070470AB1816170470904FBE75D
:1018A00001480068704700000C00002002480168F1
:1018B000491C0160704700000C0000200B4810B567
:1018C000016841F400710160016841F480610160C8
:1018D000016841F480710160052000F049F80F2093
:1018E00000F006F800F015F8002010BD003C0240A2
:1018F00010B5044600F052F94FF47A71B0FBF1F0E4
:1019000000F0FCFC00222146501E00F011F80020DF
:1019100010BD08B50020009008BD00F01F02012195
:1019200091404009800000F1E020C0F800117047AC
:10193000F0B40E4B1B68C3F30223C3F10704042C5D
:1019400000D904241D1D072D01D2002300E0DB1E59
:10195000012606FA04F56D1E0D409D409E40761E40
:10196000164045EA0601F0BC01F02EB80CED00E08F
:10197000064A00F0070110684FF6FF03184040EADE
:101980000120034908431060704700000CED00E09F
:101990000000FA052DE9F05FDFF8F8A104460F46D4
:1019A000DAF80000DFF8F08100F00F02C8B27A49DF
:1019B000814641F2883608F10808BA4261D20246EF
:1019C0008AF80020DAF8000000F00F00B8427DD15C
:1019D0002078800707D5D8F80020A36822F0F0020D
:1019E0001A43C8F800202078C0072DD0606801286D
:1019F0001AD002281BD0032819D0096889070029AA
:101A000064DAD8F80010474621F003010143C8F812
:101A10000010FFF745FF0546606801280FD0022837
:101A200018D003281CD027E009688903E7E7096874
:101A30008901E4E7FFF734FF401BB04258D838680B
:101A4000C0F381000128F5D188E0FFF729FF401B92
:101A5000B0424DD83868C0F381000228F5D17DE04E
:101A60003868FFF71DFF401BB042F9D940E0FFF78F
:101A700017FF401BB0423BD8386810F00C0FF6D16E
:101A80006CE02078800707D5D8F80020A36822F002
:101A9000F0021A43C8F800202078C0074CD06068D4
:101AA000012828D0022829D0032827D009688907CF
:101AB000002949DAD8F8002022F003020243C8F8CE
:101AC0000020FFF7EDFE0546606800E03CE00128DD
:101AD0001DD0022829D0032838D0B34646463068A6
:101AE00010F00C0F28D0FFF7DBFE411B5945F6D94B
:101AF0000320BDE8F09F09688903D9E709688901D7
:101B0000D6E7FFF7CDFE411B594502D9F0E7B346B2
:101B100046463068C0F381000128F2D10CE0FFF79F
:101B2000BFFE411B594502D9E2E7B346464630683D
:101B3000C0F381000228F2D18AF80090DAF80000A0
:101B400000F00F00B84209D00120D2E744462068D7
:101B5000FFF7A6FE401BB042F9D9C9E7207840073D
:101B600007D5D8F80010E26821F4E0511143C8F815
:101B700000102078000708D5D8F80010226921F459
:101B8000604141EAC201C8F800100F20FFF7B0FE23
:101B90000020AEE7003C02400038024010B500F0E3
:101BA00043F808490968F02292FAA2F201F0F00124
:101BB000B2FA82F2D140044A515CC840034908603D
:101BC00010BD0000083802409651000808000020AF
:101BD00010B5FFF7E3FF074909684FF4E05292FAA6
:101BE000A2F201F4E051B2FA82F2D140024A515C11
:101BF000C84010BD083802409651000810B5FFF7E4
:101C0000CDFF074909684FF4604292FAA2F201F44D
:101C10006041B2FA82F2D140024A515CC84010BD24
:101C2000083802409651000830B51948006810F095
:101C30000C01184812D0441004290ED008290DD1E7
:101C4000134A121F1168136801F03F015D0247F645
:101C5000C07304D5B4FBF1F003E0204630BDB0FB07
:101C6000F1F01168194093FAA3F3B3FA83F3D94062
:101C7000484311684FF4403292FAA2F201F4403125
:101C8000B2FA82F2D140491C4900B0FBF1F030BDFC
:101C9000083802400024F4002DE9F84F044600788B
:101CA000DFF8FCA2BF4DC0074FF0000648D0DAF8BD
:101CB00000105046C1F38101012908D00068C0F32B
:101CC000810002280AD1281D0068400206D5286834
:101CD000800335D56068002873D031E0DFF8C49206
:101CE00009F1020989F80060FFF7DAFD074641F2C1
:101CF000883804E0FFF7D4FDC11B41457AD8286835
:101D00008003F7D4207989F80000606860B1FFF79C
:101D1000C7FD074604E0FFF7C3FDC11B4145EDD8F1
:101D200028688003F7D50BE0FFF7BAFD074604E00B
:101D3000FFF7B6FDC11B4145E0D828688003F7D402
:101D40002078DFF86492800744D5DAF80010504616
:101D500011F00C0F4FF0F80809D00068C0F38100B3
:101D600002280BD18E48001F0068400206D4286864
:101D7000800714D5E068012823D110E0E068D0B1D5
:101D80000120C9F80000FFF78BFD074604E0FFF7CC
:101D900087FDC01B6428B1D828688007F7D528685C
:101DA00098FAA8F22169B2FA82F220F0F800914084
:101DB000084328600EE0C9F80060FFF771FD074690
:101DC00005E0EAE0FFF76CFDC01B642812D8286824
:101DD0008007F7D42078000725D5DFF8C481734841
:101DE000616908F16C0881B101210160FFF758FDBC
:101DF000074605E07EE0FFF753FDC01B642879D855
:101E0000D8F800008007F6D50DE00660FFF748FD22
:101E1000074604E0FFF744FDC01B64286AD8D8F8E1
:101E200000008007F6D42078400753D55C4838304E
:101E3000016841F0805101600068DFF8748100F0B2
:101E400080500090D8F8001041F48071C8F800105C
:101E5000FFF726FD074604E0FFF722FDC01B6428BC
:101E600048D8D8F80000C005F6D5DFF834B10BF13A
:101E7000680B8BF80060FFF713FD074641F28838C6
:101E800004E0FFF70DFDC11B41457ED8DBF80000E3
:101E90008007F6D4207A8BF80000A06868B1FFF7BD
:101EA000FFFC074604E0FFF7FBFCC11B41456CD873
:101EB000DBF800008007F6D50CE0FFF7F1FC0746E1
:101EC00004E0FFF7EDFCC11B41455ED8DBF80000E4
:101ED0008007F6D4A069E8B3DAF80010C1F38101F5
:101EE00002295AD0022806D0C9F86060FFF7D8FC52
:101EF00004464DE049E04F46C9F86060FFF7D0FC6A
:101F0000064604E0FFF7CCFC801B64283DD8286817
:101F10008001F7D4D4E90701084347F6C07191FA6C
:101F2000A1F1626AB1FA81F18A40A16A4FF0FF33F0
:101F300003EB51014FF4403393FAA3F3B3FA83F365
:101F400099400A4310434FF0706292FAA2F2B2FA3B
:101F500082F200E01FE0E16A914008431049091F46
:101F6000086001203866FFF79BFC044604E0FFF799
:101F700097FC001B642808D828688001F7D50AE080
:101F8000FFF78EFC001B642802D90320BDE8F88F00
:101F900028688001F4D40020F8E70120F6E700006B
:101FA000083802400038024000004742800E474295
:101FB0000070004070B5040004D094F85100002572
:101FC00010B106E0012070BD84F85050204600F0AA
:101FD00033F8022084F851002068016821F04001A4
:101FE0000160D4E901010843D4E903121143084315
:101FF00061690843218B01F400710843E1690843DA
:10200000216A0843A16A084321680860A069042185
:1020100001EA1040616A0843216848602168E06A6B
:1020200008612068C16921F40061C1616565012012
:1020300084F85100002070BD70472DE9F843044634
:1020400090F85100DDF82080012801D022287ED1AF
:1020500069B162B15BB194F85000012877D00127D3
:1020600084F8507094F85100012803D005E0012055
:10207000BDE8F883322084F8510000266665A2632B
:10208000A387E3872163A386E386A664E664A06A48
:102090004FF40055A84209D12068016821F400518D
:1020A00001602068016841F4005101602068016806
:1020B000490603D4016841F040010160E0684FF433
:1020C0008271B0F5006F606807D0002867D0884241
:1020D0006ED1E08E012862D06AE020B188420CD136
:1020E000E08E012809D1206B21680088C860206B30
:1020F000801C2063E08E401EE086E08E80B9A06ADE
:10210000A84244D12068016841F4805101603EE05A
:102110002068C068A16B0880A06B801CA0639EE053
:10212000434600220221204600F0F2FC002874D130
:10213000206B21680088C860206B801C2063E08EC3
:10214000401E0004000CE08609D1A06A00E0C7E050
:10215000A84204D12068016841F4805101604346DF
:1021600000220121204600F0D3FC00286FD1206816
:10217000C068A16B0880A06B801CA063E08F401E2C
:10218000E087E08E0028CBD1606800286AD1434602
:1021900000220121204600F0BBFCF0BBB8E7206B19
:1021A000411C216321680078C860E08E401EE086F3
:1021B000E08E98B9A06AA84204D12068016841F471
:1021C00080510160434600220121204600F0A0FC1E
:1021D00018BB2068C068A16B087040E0434600222D
:1021E0000221204600F094FCB8B9206B411C216309
:1021F00021680078C860E08E401E0004000CE08674
:1022000007D1A06AA84204D12068016841F4805136
:10221000016000224346012100E018E0204600F062
:1022200077FCA0B92068C168A06B421CA263017052
:10223000E08F401EE087E08E0028CFD1606888B92B
:10224000434600220121204600F062FC08B1032031
:102250000EE72068C168A06B421CA2630170E08F8A
:10226000401EE087A06AA84210D143460022012107
:10227000204600F04DFC18B1606D40F002000FE008
:102280002068C068ADF80000BDF800004346012298
:102290008021204600F03CFC20B1606D40F0200021
:1022A0006065D4E784F8517020688168A26AC1F340
:1022B0000011AA4210D179B1616D41F0020161654E
:1022C000016821F4005101602068016841F4005167
:1022D000016084F85060CAE684F850600020C7E6C8
:1022E0000220C5E64FF0E0210428086903D020F061
:1022F00004000861704740F00400FAE710B5401E82
:10230000B0F1807F01D3012010BD4FF0E024606167
:102310000F21601700F058FB0020A061072020610A
:10232000002010BD7047704710B5040003D094F82A
:10233000390010B107E0012010BD002084F83800FA
:10234000204600F00DF8022084F83900211D206895
:1023500001F01AFE012084F83900002010BD0000B1
:1023600008B500680B49884212D10B48016841F05A
:10237000020101600068032200F0020000900121C8
:102380001D20FFF7D5FABDE808401D20FFF7C5BAAC
:1023900008BD000000040040403802400168CA68DF
:1023A00042F00102CA600068016841F00101016069
:1023B00000207047704770B50446006801694FF00F
:1023C0000005C943890715D4C168C943890711D4D9
:1023D000E91E01610120207620688069800720467F
:1023E00002D0FFF7E7FF04E000F098F8204600F085
:1023F00096F8257620680169C943490717D4C16852
:10240000C943490713D46FF004010161022020760B
:102410002068806910F4407F204602D0FFF7CAFF91
:1024200004E000F07BF8204600F079F8257620687B
:102430000169C943090716D4C168C943090712D401
:102440006FF008010161042020762068C0698007D0
:10245000204602D0FFF7AEFF04E000F05FF8204610
:1024600000F05DF8257620680169C943C90617D4D4
:10247000C168C943C90613D46FF010010161082077
:1024800020762068C06910F4407F204602D0FFF714
:1024900091FF04E000F042F8204600F040F8257675
:1024A00020680169C943C90708D1C168C943C90780
:1024B00004D1891E0161204600F032F820680169CC
:1024C000C943090609D4C168C943090605D46FF098
:1024D000800101612046FFF725FF20680169C9439B
:1024E000490609D4C168C943490605D46FF04001C3
:1024F0000161204600F02CF820680169C943890673
:102500000BD4C168C943890607D46FF0200101616B
:102510002046BDE87040FFF706BF70BD70477047AA
:10252000084988420AD10849D1F8B40238B10020DC
:10253000C1F8B40205480168491C016070470120D8
:10254000F6E70000940200200080404220000020B6
:102550007047704738B5016804460868CA68C0F318
:10256000000002F4807238B132B108684868009007
:10257000E06B40F00100E06308684A69C0F3400086
:1025800002F0010238B132B1086848680090E06B8F
:1025900040F00400E06308684A69C0F3800002F07C
:1025A000010238B132B1086848680090E06B40F031
:1025B0000200E06308684A69C0F3C00002F001024B
:1025C00038B132B1086848680090E06B40F008000C
:1025D000E0630868C968C0F3401001F0200118B139
:1025E00011B1204601F030FD20680168C068C1F3D8
:1025F000C01100F0800019B110B1204601F032FE88
:1026000021680868CA68C0F3801002F04002012502
:1026100068B162B1CA68204622F04002CA6094F8EC
:10262000391032290CD080F8395000F0EBF8E06B0B
:10263000002804D084F839502046FFF78AFF38BDBF
:10264000222180F83910F0E770B5040004D094F826
:102650003900002510B106E0012070BD84F8385023
:10266000204600F021F8022084F839002068C16873
:1026700021F40051C160204601F03AFD2068016953
:1026800021F4904101612068416921F02A014161F2
:102690002068C16841F40051C160E563012084F8FD
:1026A0003900002070BD000030B5044600681F49A5
:1026B00087B0884238D11E48016841F001010160AD
:1026C000006800F00100059019481030016841F4DD
:1026D000003101600068012100F400300590042001
:1026E00000900220CDE9010103900720114D0490D4
:1026F00069462846FEF7E4FF082000906946284610
:10270000FEF7DEFF2068C16821F04001C16020684B
:10271000C16841F02001C1602620FFF7FEF80322C6
:1027200011462620FFF704F907B030BD00440040F1
:1027300030380240000002402DE9F047044690F88E
:10274000390099460D46012801D0122857D125B3EA
:102750001AB394F83800012851D0012684F8386063
:102760000027E76394F83900122819D0222084F852
:102770003900A285E2854FF48058E08D4B46401E1B
:10278000E085A0684FF0000240454FF02001204650
:1027900016D101F09AFDB0B904E00120BDE8F08740
:1027A0003220E4E7206900282068406803D0C1B2E5
:1027B00025F8011B12E0C0F3080125F8021B0DE00B
:1027C00001F083FD08B10320E8E7206900282068B4
:1027D000406801D000F07F0005F8010BE08D002873
:1027E000CBD194F83900322805D084F8396084F8C8
:1027F00038700020D2E7122084F83900F7E7022071
:10280000CCE770477047FEE770B51B4886B00025DF
:10281000016841F001010160016801F001010591C9
:10282000016841F004010160016801F004010591B3
:10283000016841F0800101600068032400F080001D
:10284000059002200126CDE90204CDE90065694624
:102850000A48FEF735FF700303948DE8610069466E
:102860000748FEF72DFF0C20009069460548FEF74B
:1028700027FF06B070BD0000303802400000024063
:1028800000080240001C02402DE9F0470126304CB0
:102890007703DFF8C080DFF8C090304D01281DD0ED
:1028A0002078A0B108212846FEF7F0FFC0B104212E
:1028B0002846FEF7EBFF98B139464046FEF7E6FFA3
:1028C00070B101214846FEF7E1FF012808D0082138
:1028D0002846FEF7DBFF012826D037E02670E1E727
:1028E0000A2001F09DFD0020207008212846FEF7F7
:1028F000CDFF80B104212846FEF7C8FF70B13946EC
:102900004046FEF7C3FF58B101214846FEF7BEFF1F
:10291000012807D01AE00120BDE8F0870220FBE77C
:102920000320F9E70420F7E704212846FEF7AEFF6D
:1029300001280BD139464046FEF7A8FF012805D1F2
:1029400001214846FEF7A2FF00B926700020E3E708
:102950001C0000200008024000000240001C024051
:10296000164810B5016886B041F0080101600068A2
:10297000134C00F0080005904FF4704000900120C7
:10298000019002900320039069462046FEF798FECE
:10299000012211032046FEF77EFF0122510320464B
:1029A000FEF779FF012291032046FEF774FF012212
:1029B000D1032046FEF76FFF06B010BD303802404D
:1029C000000C0240FEE770470907090E002806DAEE
:1029D00000F00F0000F1E02080F8141D704700F1B6
:1029E000E02080F80014704770470000074806494F
:1029F000016007494160074981600749C160074993
:102A0000016107494161704701310008D00200208F
:102A1000693C00083D3D0008ED300008293D0008F4
:102A2000DD3B0008F0B5214887B00025016841F082
:102A300002010160006800F0020005901B481030A0
:102A4000016841F4804101600068022600F4804082
:102A500005904FF4604001278DE8C1000520CDE9C5
:102A6000036069461248FEF72BFE134C11482060A4
:102A70004FF48270C4E901053002C4E90570C4E96D
:102A800003563820C4E9070507206562C4E90A50E7
:102A90002046FFF78FFA2068016841F0400101608D
:102AA000FF2000F00BF807B0F0BD00003038024006
:102AB00000040240003800403C02002001B582B012
:102AC0004FF47A700090012301AA02A90248FFF78F
:102AD000B4FA9DF804000EBD3C0200200B4A10B56C
:102AE00011680B6823F040030B6011680B684FF608
:102AF000C77423400B6011680B6803430B601068B8
:102B0000016841F04001016010BD00003C0200205E
:102B10002DE9F0471D4690460F460446FEF7C0FEDD
:102B200006465FEA08004FF000084FF4005A4FF0E5
:102B3000010926D034E0681C23D025B1FEF7B0FE91
:102B4000801BA8421DD92068416821F0E001416046
:102B50002068016821F040010160A06A504509D158
:102B60002068016821F4005101602068016841F487
:102B70000051016084F8519084F850800320BDE832
:102B8000F0872068806837EA0000D4D10DE0681C27
:102B900006D0002DD7D0FEF783FE801BA842D2D8E6
:102BA0002068806837EA0000F1D00020E7E770472E
:102BB00030B50C48C16991F8270000F0070391F87F
:102BC0003000C4095B1C10F0060200D0012291F80D
:102BD0003210234402251A4405EAD0001144084467
:102BE00030BD000068000020044A53890B80002398
:102BF00053810A880249FDF7B2BC0000680000203A
:102C0000580400202DE9F05FDA4F01242DED028BEE
:102C100038467A78C069DFF86093D84D4FF00008E5
:102C20004FF0050B4FF0200A00F1400126460C2A18
:102C30007DD2DFE802F07C06629DF6F5F4F3F2F156
:102C4000F0EF90F83020D20601D54C2200E00C22A3
:102C500080F84020E12280F841200222402001F04B
:102C60007FF8052000F0DEF94FF48071C248FDF7CF
:102C7000BBFCC0483830406801F0BEFF41EC180B87
:102C8000FFF796FF01F0B8FF9FEDBD1B53EC112B32
:102C900002F002F853EC182B01F0E2FD9FEDBA1B95
:102CA00053EC112B01F0F8FF41EC100B01F090FCFC
:102CB00001F08BFF9FEDB61B53EC112B01F01CFDB7
:102CC00001F056FF80B200EB50003862786228684D
:102CD00038617861F869A02180F83510352001F05D
:102CE00039F887F8028087F8038087F8048087F82E
:102CF0000580A7F80A8002202DE100F0A3FF01283B
:102D000004D1B87810B9BE702868786100F096FFD9
:102D1000012815D1B87898B1F87888B9FE7000F01C
:102D200059F987ED0C0B00F037F9B86200E090E03C
:102D300000F06AF9F87128683861786103207870CA
:102D4000B878F97888430DD028687969401A796A8B
:102D5000884207D97E70F869407B40F020010D2041
:102D600000F0F8FFF878B9780843397908433BE078
:102D70007889B0F5807F01D90620ECE000F05CFF97
:102D800001282CD17889797908430DD1F86990F818
:102D90003010090605D5774801210A3000F054FFAC
:102DA00002E090F832007881798978790A1AF96915
:102DB00091F8351001F03F018A420ADD484400F0E5
:102DC00043FFF869797990F8350000F03F00084436
:102DD00004E0D1B2484400F037FFB87A787100F0CF
:102DE00029FF012802D0387958B3BDE0286838613E
:102DF000798978794FF0040551EA000217D1F86912
:102E000090F8301009060DD55A4801210A3000F01B
:102E10001BFF0AE0A5E0A0E075E051E039E02BE0FF
:102E20001DE017E090F832007881B97A7879091AB4
:102E3000C9B2484400F008FFB87A78713E717D70DD
:102E400092E028683969401A396A884201D987F8BE
:102E500001B089E087F805807E70022484E087F85D
:102E60000580A7F80A80407B40F020010D2000F08B
:102E700071FF7E70032477E087F80580A7F80A8049
:102E8000407B40F020010D2000F064FF7E7006249E
:102E90006AE080F8406080F841A00222402000F003
:102EA0005FFFF869982180F83510352000F052FF57
:102EB000032000F0B7F80820787087F8068053E008
:102EC00000F0BEFE01284FD1F86990F830000006EE
:102ED00004D5284801210C3000F05EFFB889411E5E
:102EE0003F2901D8387002E0504687F800A0C1B2EF
:102EF000214800F051FFB87939780844B871286842
:102F0000B861092027E000F097FE90B9B989B87937
:102F10000A1A39788A4206DD484400F03DFFB87944
:102F20003978084404E0D1B2484400F035FF387BDA
:102F3000B87100F07FFE012806D12868B8610A2028
:102F40007870012000F06EF82868B969401AB0F571
:102F50007A7F09D90B20787006E087F80180042475
:102F600002E087F801800524BDEC028B2046BDE815
:102F7000F09F00006800002058040020200000207E
:102F800000000000000020400000000000408F40D2
:102F9000000000000000F03F10B50B4C02221B2087
:102FA000E1691B3100F028FEE069B0F81B0040BA6F
:102FB00001F022FE9FED051B53EC112B01F06CFE7E
:102FC000BDE8104001F0A4BD680000200000000032
:102FD00080844E4010B5094C1120E169113100F098
:102FE00007FEE069407C01F007FE9FED051B53ECF6
:102FF000112B01F051FE41EC100B10BD68000020B8
:10300000000000000000E0BF10B5054C0C20E16995
:103010000C3100F0EDFDE069007B400910BD0000BF
:103020006800002070B50F4D04460020E96949781A
:1030300021F0F80129728C4213D0032C00D1012019
:10304000697A884202D0687200F0ABFEE869417884
:1030500001F0F80121434170BDE87040012000F00B
:1030600079BE70BD680000200149487070470000BB
:103070006800002010B5054C0A46A18101460448AD
:10308000FDF76DFA0720607010BD00006800002099
:10309000580400200EB56946282000F0A9FD9DF8CF
:1030A000001010A0FDF7F4F801A9292000F0A0FD00
:1030B0009DF804100BA0FDF7EBF802A92A2000F000
:1030C00097FD9DF8081007A0FDF7E2F89DF80000B5
:1030D0009DF80410000400EB01209DF8081008443E
:1030E0000EBD000025640D0A00000000034A12789E
:1030F0000AB100F045B8FFF777BD000024000020BA
:1031000008B51349114808601249086000F036F804
:1031100000F0AAFD6946062000F06AFD9DF8001047
:103120000DA0FDF7B5F805E00FA0FDF7B1F864209C
:1031300001F076F99DF800006C28F5D10E490120C8
:10314000087000F0A5FD00F027F808BDE802002097
:10315000840000203800002054656D705265673D82
:1031600025640D0A00000000486172642053504934
:1031700020457272210D0A002400002070470000D3
:10318000034BDA880A800021D9800249FDF7E7B9AC
:10319000280000205803002070B5294C0020207022
:1031A000012000F097FB00F02DFB264D6F22691CDB
:1031B000012000F021FD216920206F220873691C85
:1031C000012000F0CDFD2034206800F01DFCA07926
:1031D00000F0AAFCE07900F01DFB207A00F0D2FBA1
:1031E000607900F089FC607A00F02EFB40F2FF303D
:1031F00000F0C4FC207E00F0DFFB012000F03CFB6F
:103200004FF6FF7000F0EAFB0F492068884207D9AB
:10321000802000F081FB012000F094FB142006E0E8
:10322000002000F079FB002000F08CFB0E202071C4
:1032300000F00EFCBDE87040012000F04BBB000028
:1032400028000020E80200200057A6162DE9F04FC4
:103250002DED068B83B000260125FB4C8DF8006018
:10326000DFF8E8832078DFF8E893AA464FF0020BF6
:1032700004F120070B287DD2DFE800F07C064D9A90
:10328000FAF9F8F77CF6F500012000F023FB20693D
:103290009D214174112000F05DFDF87A012827D0AE
:1032A000206980F82460206990F82410242000F020
:1032B00051FD21690222402001F83F6F4E7000F05D
:1032C0004FFDB87A012824D02069C17B41730D20BD
:1032D00000F040FD052000F0FDFA4FF48071DD485C
:1032E000FDF782F978696061D9F80000E0606FE06D
:1032F0002169387B81F824001C201C3100F078FC07
:103300002069007F00F03F0158F8210000F07CFBAD
:10331000C9E70620DFE76946122000F069FC9DF846
:103320000000400618D5D9F80000E060F87A0128BE
:103330000CD121691C201C3100F05AFC2069007F4F
:1033400000F03F0158F8210000F05EFB4021122000
:1033500000F000FD032020709DF8000080071BD5C1
:10336000D9F80000E060F87A01280ED121691C200C
:103370001C3100E02EE000F03BFC2069007F00F0F3
:103380003F0158F8210000F03FFB0221122000F01D
:10339000E1FC00F029FA6070B87A01281AD1D9F856
:1033A0000000E168401A6169884213D9042035E1C0
:1033B00021691220123100F01BFC2069807C8006FC
:1033C0000CD52021122000F0C5FCB87A012802D0CB
:1033D00084F800B0BAE184F800A0B7E101A919208F
:1033E00000F006FC9DF80400010605D5C043401C12
:1033F000C0F38500404200E08008944D964920715A
:10340000F03D9FED96AB9FED979B3868884294F90D
:1034100004002ED2002817DA01F0D7FB41EC180B7C
:10342000787953EC1A2B05EBC00090ED000B51ECB2
:10343000100B01F031FC53EC192B01F05DF941EC5C
:10344000100B9FED8A1B2DE021691A201A3100F024
:10345000CFFB2069807E01F0CFFB41EC100B7B4954
:103460007879A03937E063E14CE145E11AE199E070
:1034700094E0002821DA01F0A8FB41EC180B7879E0
:1034800053EC1A2B05EBC00090ED000B51EC100B28
:1034900001F002FC53EC192B01F02EF941EC100B5A
:1034A0009FED741B51EC100B53EC112B01F024F920
:1034B00041EC100B53EC182B13E021691A201A3140
:1034C00000F096FB2069807E01F096FB41EC100B2A
:1034D0005E497879503901EBC00090ED001B53EC48
:1034E000112B51EC100B01F007F9C4E9060194ED22
:1034F000060B62A053EC102BFCF7CAFEB87A012829
:1035000026D021691020103100F072FB787A012852
:1035100034D021691320133100F06AFB2069C17C8B
:10352000E180017C41730D2000F014FC2069C17C16
:10353000484800F089FBB87A01282CD084F800B004
:10354000FFF7A8FD014651A0FCF7A2FE0225FDE011
:103550002069C17B41730D2000F0FCFB787A0128C3
:1035600008D021691320133100F042FB2069C17C8F
:10357000E180DDE7206990F82210F9E7206990F8F2
:103580002210E180017C41730D2000F0E3FB2069F3
:1035900090F82210CCE784F800A0D1E784F800A0CE
:1035A0000325D3E0012000F095F9F87A012837D0FF
:1035B0002069F721417480F82460206990F8241074
:1035C000242000F0C7FB2069417C112000F0C2FBE1
:1035D0002069217A80F82210222000F0BBFB2069AC
:1035E000314686730E2000F0B5FB2069817B417364
:1035F0000D2000F0AFFB206990F82210154800F074
:10360000CBFB21694120022201F83F0F4020487086
:1036100000F0A6FB032000F05DF90620207095E085
:103620002169F5204874387B81F824001C201C3166
:1036300000F0DEFA2069007F00F03F0158F8210019
:1036400000F0E2F9B9E700002800002098520008D5
:103650002000002058030020008F423300000000AB
:10366000000024400000000000C065C00000000011
:103670000000104000000000000018405273736901
:10368000203D202531322E36660D0A0046726571C6
:1036900075656E6379204572726F72203D20256CCE
:1036A000640D0A006946122000F0A2FA9DF800009D
:1036B00000074BD52CA0FCF7EBFD0821122000F0F1
:1036C00049FB072020709DF8000000073ED5F87ADE
:1036D00001280CD121691C201C3100F089FA2069D5
:1036E000007F00F03F0158F8210000F08DF9022121
:1036F000122000F02FFB29E0012000F0EBF82670EB
:10370000042523E0012000F0E5F82069FA21417446
:10371000112000F01FFB21690222402001F83F6FB9
:103720004E7000F01DFB072000F0D4F80A2075E76A
:1037300000F086FA012809D10421122000F00AFBCA
:1037400000F080FA012807D02670072503B028462C
:10375000BDEC068BBDE8F08F0121122000F0FAFAD3
:1037600084F800A00825F1E7545820446F776E20B4
:103770004952510D0A00000070B5184D1B202969EF
:103780001B3100F035FA05F1200415492068884204
:103790002869C07E0ED201F02FFA41EC110B60793E
:1037A000104901EBC00090ED000B51EC110B53ECF4
:1037B000102B0EE001F020FA41EC100B0949607962
:1037C000503101EBC00090ED001B51EC100B53EC9D
:1037D000112B00F091FF41EC100B70BD2800002070
:1037E000008F4233F851000810B5054C0C202169B8
:1037F0000C3100F0FDF92069007B400910BD00008C
:1038000028000020024801694220413100F0F0B94F
:103810002800002070B50A4D04461D2029681D317E
:1038200000F0E6F92A68507F00F0F10040EA440019
:10383000C1B251771D2000F08DFA0248C47170BDED
:10384000380000204800002070B5094D04461D20B6
:1038500029681D3100F0CCF92A68507F00F0FE0184
:10386000214351771D2000F075FA0248447270BD63
:10387000380000204800002070B50A4C054626207C
:103880002168263100F0B4F9226812F8260F00F002
:10389000F70040EAC5011170BDE87040262000F035
:1038A00059BA00003800002070B5094D0446312097
:1038B0002968303100F09CF92A6812F8300F00F0C6
:1038C000F80121431170BDE87040312000F042BA88
:1038D0003800002070B50F4D044600202969497852
:1038E00021F0F801A9708C4213D0032C00D10120E3
:1038F000E978884202D0E87000F053FA28694178EC
:1039000001F0F80121434170BDE87040012000F052
:1039100021BA70BD2800002070B5094D0446092069
:103920002968093100F064F92A68507A00F07F01B3
:1039300021435172BDE87040092000F00BBA00002D
:103940003800002070B50E4C05464D2021684C31E2
:1039500000F04EF921680920093100F049F9216889
:10396000487A00060AD515B1872081F84C0091F8F5
:103970004C10BDE870404D2000F0ECB98420F4E715
:103980003800002070B50A4D04461E2029681E31FB
:1039900000F02EF92A68907F00F0FB0040EA8401D5
:1039A00091771E2000F0D6F90248047270BD000025
:1039B0003800002048000020064910B50968044678
:1039C00081F822000146222000F0C4F90248047662
:1039D00010BD0000380000204800002070B5094DDF
:1039E0000446022229682020203100F005F92968C8
:1039F000200A022201F8200F20204C70BDE8704000
:103A000000F0AEB9380000200D4910B5086001F093
:103A1000F3F89FED0C1B53EC112B00F021FF01F08C
:103A2000A7F80A49020C096801F8062F020A4A7031
:103A300088700322BDE81040062000F091B9000014
:103A4000480000200000000080844E403800002024
:103A500070B5244D044609202968093100F0C8F8E2
:103A600029684D204C3100F0C3F82868417A0A06D5
:103A700028D590F84C3087229A4303D0022C0EDAD6
:103A800002240FE0052C01DA052402E0142C00DDED
:103A9000142401F0F00141F07001621F07E0112CC5
:103AA00000DD112401F0F00141F07001A21E02F0CE
:103AB0000F0211434172C9B2092000F04BF90A48C4
:103AC000047170BD4FF0FF32944201DA144602E0F7
:103AD0000E2C00DD0E2401F0F00141F07001621C9B
:103AE000E5E7000038000020480000200149087088
:103AF000704700002800002070B5094D04461D20C5
:103B000029681D3100F074F82A68507F64F31F1093
:103B1000C1B251771D2000F01DF90248447170BDFB
:103B2000380000204800002070B504460C2801D958
:103B30000C2408E0062C02D24FF0060400E002D16B
:103B40004FF0050001E04FF00300FFF7ADFE094D17
:103B50001E2029681E3100F04BF82868817F64F32D
:103B60001F11C9B281771E2000F0F4F80248847159
:103B700070BD0000380000204800002070B50C4DDA
:103B80000446022229681E201E3100F035F82968FB
:103B9000032202EA142211F81E0F00F0FC00104369
:103BA00008704C70BDE8704002221E2000F0D8B8AA
:103BB0003800002010B5074A064CD27A203C02B1EA
:103BC000FF2121818AB201460348FCF7C8FC052089
:103BD000207010BD480000205803002003480078E2
:103BE00008B1FFF733BBFFF70DB800002400002039
:103BF000012200F001B800002DE9F0410C4F0E4603
:103C000000211546C7F8881200F07F00FEF756FF26
:103C1000002405E0002000F03BF93055641CE4B2BC
:103C2000AC42F7D30120C7F88802BDE8F08100005C
:103C3000000042420020704700207047002070477B
:103C400000207047002070470A4601460020FFF719
:103C5000D3BF00000348007808B1FFF78DBDFFF720
:103C6000B9B900002400002010B5012000F050F880
:103C7000064C206821688142FCD0002000F048F802
:103C800020682168091A0629FBD310BD20000020F6
:103C900070B51C494A78824232D0487008701A4D7B
:103CA0001A4C00284FF0000016D0FFF713FE2868CA
:103CB000417841F080014170012000F04BF8012073
:103CC000FFF708FE29680020022201F83F0F487024
:103CD000402000F045F80CE0FFF7FCFD2868417833
:103CE00001F07F014170012000F034F80120FFF75E
:103CF000F1FD611CBDE870406F220120FFF77CBF21
:103D000070BD00002400002038000020E8020020E0
:103D10000449012803D00120C1F890027047002017
:103D2000FAE7000000004242034A12780AB1FFF7A6
:103D300041BFFFF79FB9000024000020044800782D
:103D400000284FF0010001D0FFF7D0BEFFF78CB97B
:103D50002400002013B5012201A900F001F81CBDC8
:103D60002DE9F0410B4F0E4600211546C7F8881289
:103D700040F08000FEF7A2FE002404E0305DFEF774
:103D80009DFE641CE4B2AC42F8D30120C7F888025F
:103D9000BDE8F081000042420A4601460020FFF7DC
:103DA000DFBF70471CB50AA0D0E90010CDE90010B4
:103DB0002820FEF793FE01226946062000F034F821
:103DC0009DF800006C2801D001201CBD00201CBD06
:103DD00000A5A5A5A500000030B5104887B00025B6
:103DE000016841F0100101600068012400F010003A
:103DF00005901420CDE900040320CDE90240694676
:103E00000748FDF75DFCFEF70DFE00F02BF80548B6
:103E1000C0F89052C0F8884207B030BD3038024038
:103E200000100240000042422DE9F0410C4F0E46C6
:103E300000211546C7F88812FEF740FE8046002490
:103E400005E0FF20FEF73AFE3055641CE4B2AC42B8
:103E5000F7D30120C7F888024046BDE8F081000092
:103E60000000424210B5094C2068016821F0400171
:103E700001600020206160612046FEF79BF8206809
:103E8000016841F04001016010BD00003C020020CB
:103E9000FEF714BE70B5174C92B00025266846F0A8
:103EA0008056266024680DF1240C04F0805411948F
:103EB000012400940194022406948CE80D00660508
:103EC000CDE907616846FDF7E7FE00B1FEE70CA902
:103ED0000F2081E831004FF4A0500F904FF4805034
:103EE000109005210CA8FDF755FD002800D0FEE735
:103EF00012B070BD40380240FDF7D8BC10480168D0
:103F000041F4700101600F48016841F00101016056
:103F10000C4A00210832116002680B4B1A40026003
:103F2000031D0A4A1A60026822F4802202600548D2
:103F30000C30016002495806803908607047000063
:103F400088ED00E000380240FFFFF6FE103000244C
:103F50000148FEF730BA000094020020094A10B56B
:103F6000074BC2E900310021C2E90210104611617D
:103F7000FEF7DAF9BDE810400248FEF70FBA00007C
:103F80000004004094020020F0B50268234D244E46
:103F9000244FDFF894C0254B4FF0804EA84209D043
:103FA000704507D0B04205D0B84203D0604501D07B
:103FB000984203D122F070044A682243A8421BD0E1
:103FC000704519D0B04217D0B84215D0604513D013
:103FD000984211D0164CA0420ED0164CA0420BD0E5
:103FE000154CA04208D0154CA04205D0144CA0425C
:103FF00002D0144CA04203D122F44074CA68224378
:1040000002608A68C2620A688262A84201D098424D
:1040100001D10969016301214161F0BD0000014046
:104020000004004000080040000C00400004014073
:104030000040014000440140004801400018004099
:10404000001C00400020004010B590F839102229D3
:1040500003D0322901D0022010BD8168B1F5805F04
:1040600011D00169002901681FD0496801F07F0360
:10407000816A4A1C82620B70C18D491E0904090CB9
:10408000C18518D02FE00269816A002A026852684F
:1040900005D0D2B20A80816A491C8162ECE7C2F382
:1040A00008020A80816A891CF7E74A68816A4B1C0A
:1040B00083620A70E0E70168CA6822F02002CA60E1
:1040C00090F83910322910D00168CA6822F4807241
:1040D000CA6001684A6922F001024A61012180F840
:1040E0003910FEF78EFB002010BD1221F7E700000B
:1040F0002DE9F041044600680169E26821F440516D
:104100000A4302612068C16849F20C629143236945
:10411000A268E5691A4363692B431A430A43C260E4
:104120002068416921F44072A16911434161E0694D
:1041300064263225B0F5004F484A494920681DD011
:10414000884201D0904269D1FDF758FD00EBC001D3
:1041500001EB00106168B0468900B0FBF1F1B1FBE2
:10416000F8F6FDF74BFD00EBC00101EB00106168B4
:104170008900B0FBF1F7FDF741FD68E0884201D00E
:10418000904219D1FDF73AFD00EBC00101EB0010A0
:104190006168B0464900B0FBF1F1B1FBF8F6FDF7FC
:1041A0002DFD00EBC00101EB001061684900B0FB80
:1041B000F1F7FDF723FD18E0FDF70AFD00EBC00164
:1041C00001EB00106168B0464900B0FBF1F1B1FBB2
:1041D000F8F6FDF7FDFC00EBC00101EB0010616893
:1041E0004900B0FBF1F7FDF7F3FC00EBC00101EB78
:1041F000001061684900B0FBF1F1B1FBF8F06FF01D
:104200001801484307EB800005EB0011B1FBF8F003
:10421000216866F31F108860BDE8F081FDF7D8FCC7
:1042200000EBC00101EB00106168B0468900B0FBF3
:10423000F1F1B1FBF8F6FDF7CBFC00EBC00101EBAF
:10424000001061688900B0FBF1F7FDF7C1FC00EBDD
:10425000C00101EB001061688900CCE70014014047
:104260000010014090F83910122903D0322901D0F2
:10427000022070478168B1F5805F016A0BD04A1C4B
:104280000262026809785160C18C491E0904090C58
:10429000C1840ED017E009880268C1F3080151609B
:1042A00001690029016A02D0491C0162ECE7891CFE
:1042B000FBE70168CA6822F08002CA600068C16832
:1042C00041F04001C160002070472DE9F0471D46D4
:1042D00090460F460446FDF7E3FA06465FEA0800FB
:1042E0004FF000094FF0010808D030E0681C05D0FD
:1042F00095B1FDF7D5FA801BA8420DD8206800685B
:1043000037EA0000F2D127E0681C20D025B1FDF784
:10431000C7FA801BA8421AD92068C16821F0800121
:10432000C1602068C16821F02001C1602068C168B7
:1043300021F48071C1602068416921F0010141616F
:1043400084F8398084F838900320BDE8F08720682D
:10435000006837EA0000D7D00020F6E738B51848E3
:1043600000680068C043800622D44FF47A730122AB
:1043700069461348FEF7E0F9124A1088010417D481
:1043800041049DF800104FF0000304D50A290ED116
:1043900040F4004012E00D290ED0C0F30D04084D8A
:1043A000401CC83D80B229551080C72800D9138011
:1043B0000348FEF7CFF838BD40F480401080F7E79F
:1043C000A401002014000020FEE703B4019841007E
:1043D000009850EAC12018BF04204A0D18BF40F0D1
:1043E000010040F2FF72B2EB515F08BF40F00200E3
:1043F000012808BF052002B0704730380A2801D2D2
:1044000001207047002070477047000010B5044637
:104410000420FDF767FF0148046010BD1000002074
:1044200070B5054600244FF47A7603E0304600F07C
:1044300005F8641CAC42F9D370BD000070B54FF0B4
:10444000E02500216C69094AAB6912685043AA69EA
:104450009A42FCD002D2A3EB020302E0A4EB0206D4
:104460003344194413468142F1D370BD100000203B
:1044700004490A685206FCD5024AC1B2121D1160F5
:1044800070470000004400400025FDF717FA07239D
:10449000022208214FF4A870FFF7FCFCFDF77EFB19
:1044A0004FF47A71B0FBF1F0FDF728FFFDF7EAF861
:1044B00042F2CF010920FFF751FD4FF4E13000F047
:1044C000F3F8A820FFF7A2FF0A20FFF7A9FFFEF7E5
:1044D00047FAFEF799F9FFF77FFCFFF7C5FB05E008
:1044E000C820FFF79DFFC820FFF79AFFFFF75AFC8F
:1044F0000028F5D1FEF77AFA264C60600068804704
:104500000020FEF7C1F901280AD0022808D06D1C4E
:10451000ADB2C82D00D100250520FFF781FFEFE7E0
:104520001DA0FBF7B5FE6068806880471E4F00261F
:104530001E4D26E060681749C2681C4890471B481A
:10454000FBF7EEFFD0B1FFF785FB53EC102B18A063
:10455000FBF79EFE1548FBF7E3FF2E54134918A006
:10456000FBF796FED7F8B00288B10020C7F8B0027A
:1045700000202E54401C80B21E28FAD36068806848
:1045800080476068406980470228FAD1D2E701205D
:10459000ECE70000000000206C6F72612052585F51
:1045A0004D6F64650D0A000000804142BC00002090
:1045B00052737369203D202531322E36660D0A0074
:1045C0004C6F52612052583A2025730D0A000000AA
:1045D00000B52DED088B85B0CDE900019DED000BF8
:1045E00051EC100B00F08CFC41EC180B9DED000B16
:1045F00053EC182B51EC100B00F0DCFC41EC190BC8
:1046000001989FED270B10F0004F53EC102B51EC4D
:10461000190B9FED1FAB9FED20BB0ED000F000FBF0
:104620000ED953EC1B2B51EC190B00F033FC1CD2B0
:1046300014E000BF41EC180B17E000F0F1FA06D2CD
:1046400053EC1A2B51EC180B00F0B4FCF2E753ECCE
:104650001B2B51EC190B00F01DFC06D853EC1A2B48
:1046600051EC180B00F048F8E4E78DED028B9DED5E
:10467000000B18EE901A10EE900A61F31E000390E2
:104680009DED020B05B051EC100BBDEC088B00BD8D
:10469000000000000000F03F000000000000E03FCC
:1046A000000000000000E0BF0749064AC1E9002001
:1046B00000208860C860086188610C204861084655
:1046C000FDF7C2BF00440040A401002010B500293E
:1046D0000AD00878002807D005487844FCF7D6FBB4
:1046E000002801D0002010BD0248784410BD000011
:1046F0003E0D0000360D000010B591EA030F48BFD3
:1047000083F0004300F15E84841A71EB030C05D240
:10471000121943EB0C03001B61EB0C01DFF824E1E1
:104720004FEA1154A4EB135C1EEA430F18BF9EEA34
:10473000445F73D023EA0E03DCF1200E21EA04511A
:1047400043F4801332D322FA0CFE10EB0E0023FA4E
:104750000CFE41EB0E01CCF1200E03FA0EFE10EB25
:104760000E0051F10001B1F5801FCCF1200E32D2C4
:1047700001EB045112FA0EF2BDE8104058BF704729
:10478000401C38BF5FEA420218BF7047002814BFC0
:1047900020F0010041F100014FEA410313F5001F31
:1047A00038BF7047A1F1C04100F06EBB012A43EB56
:1047B0000302ACF1200CDCF11F0E32BF4FF0000EF3
:1047C00023FA0CF310EB030041EB0451B4EB115F3F
:1047D000D0D0A1EB045101F5801149085FEA300007
:1047E00001EB04510ED350F1000038BF12FA0EFE57
:1047F00008D1BDE81040C9E7401C38BF5FEA42025B
:10480000CAD1C3E7BDE810404FEA410313F5001FCA
:1048100038BF7047A1F1C04100F036BB9EEA445F4B
:1048200008D011EA5E0FBDE8104004BF01F000415E
:1048300000207047BDE8104070B500F0D7FA00BF07
:1048400064FBBE3E0000E0FF491058BFC1F140418B
:104850005B1058BFC3F140438B42EFF300807047B9
:104860002DE9C04130B4DFF8A0C23CEA111418BFF2
:104870003CEA131400F0EC8081EA03051CEA1114F1
:1048800044EAD57418BF1CEA131500F0C780A4EBE6
:1048900005044FF0004545EAC12145EAC32341EA3A
:1048A000505143EA525304F17F74994204F50034A5
:1048B0004FEAC0204FEAC22208BF904200F09C801D
:1048C0004FEA13650FF24016765D4FEA134506FB7B
:1048D00005F7C7F1807706FB07F74FEAD737A7FB45
:1048E00003687642C8F58038A7FB06CE38BFA8F12A
:1048F000010807FB08E64FF0000EA6FB028CE6FB62
:1049000003CEDCF1000CCEF1004E38BFAEF1010E4B
:10491000A6FB0C584FF000074FF00005E6FB0E8792
:10492000A1FB08C6A0FB07CE16EB0E0645F100055D
:10493000E1FB076515F1E04E7EBFA4F580345FEA28
:1049400046066D4116F1800745F100054FEA17272D
:104950004FEA066647EA0567A6F1DE46B6F1805FD4
:104960004FEA15251FD9384624F0010C05EBC47118
:10497000BCF1FE6F01EB0C1102D8F0BCBDE8008168
:1049800024425CBF01F5801E9EEAC47F02D4F0BCC5
:10499000BDE80081244238D4F0BCA1F1C041BDE89B
:1049A000004100F071BA4FEAD22242EA43524FEA84
:1049B000D323A7FB02864FEAD02040EA415007FBF1
:1049C00003661EEA0E0F4FEAD12105FB026658BFAF
:1049D000A6EB0056B6EB00564FEA520E4EEAC37EE7
:1049E00018EB0E0E56EB530EBDD518EB02085E41C8
:1049F0007F1C55F10005B6E74FF480154FF0000716
:104A00004FF000064FF00008ADE7F0BC4FF000009B
:104A100001F1C04101F00041BDE8008111EA0C1F25
:104A20000CEA131500D00CE013EA0C1F00F02580EF
:104A30004FF00000F0BC81EA030101F00041BDE845
:104A40000081F0BCBDE8004181EA030100F01CBA1E
:104A5000F0BCBDE8004170B500F0C8F9097EFC3E2D
:104A600000F007B881EA03014FF0000001F00041B7
:104A7000704781EA030100F007BAF0BCBDE80041CD
:104A80004FF0000021497047FFFDFBF9F7F5F4F204
:104A9000F0EEEDEBE9E8E6E4E3E1E0DEDDDBDAD8D9
:104AA000D7D5D4D3D1D0CFCDCCCBCAC8C7C6C5C437
:104AB000C2C1C0BFBEBDBCBBBAB9B8B7B6B5B4B34E
:104AC000B2B1B0AFAEADACABAAA9A8A8A7A6A5A439
:104AD000A3A3A2A1A09F9F9E9D9C9C9B9A999998FD
:104AE0009797969595949393929191908F8F8E8EA0
:104AF0008D8C8C8B8B8A898988888787868585842D
:104B000084838382828181800000FF070000F87F18
:104B10004FEA41034FEA5353A3F58063D3F11E03D9
:104B2000C8BFD3F1210C0CDD4FF0004242EAC12294
:104B300042EA505232FA03FC8CEAE17CACEBE170C1
:104B40007047102BC4BF0020704703F5787CBCF180
:104B5000FF3F04D06FF0004282EA2100704770B539
:104B600000F044F94992248000207047F2E70000E9
:104B70004FEA1153A3F58063D3F11E03A8BFD3F10D
:104B8000200C08DB4FF0004242EAC12252EA5052A8
:104B900032FA03F0704709420BD4102BC4BF002037
:104BA000704703F5787CBCF1FF3F05D04FF0FF3034
:104BB00070474FF00000704770B500F017F900BF64
:104BC0004992248000207047F0E710F0004248BF6F
:104BD0004042B0FA80F310FA03F10AD0C3F11D038A
:104BE00003F580634FEA415002EB035202EBD121FF
:104BF00070474FF000007047B0FA80F310FA03F1ED
:104C00000AD0C3F11D0303F580634FEA41504FEA18
:104C1000035202EBD12170474FF0000070470000B3
:104C200051EA030C17D41CF5801F58BFBCF5801F38
:104C300000F10680994218BF704708BF9042704744
:104C400007D711F5801F58BF13F5801F19D499425B
:104C50007047894270471CF5801F08D5BCF5801F3E
:104C6000F7D58B4218BF704708BF824270474FF498
:104C7000001C1CEB410F38BF1CEB430F01D28B42D1
:104C8000704770B500F0B2F8922449004FF000511F
:104C90004FF08053FFF7D8BDDFF848C170B51CEA6C
:104CA000111E1EBF1CEA13159EEA0C0F95EA0C0F8D
:104CB00000F06F8081EA030423EA4C134EEAD47EAD
:104CC00021EA4C1141F4801143F48013AE44A1FB5E
:104CD000024CA0FB0365AEF17F7E361955EB0C0547
:104CE000A1FB034C4CF10003A0FB021C16EB0C06CD
:104CF000654153F10003094218BF46F0010613F461
:104D0000007F0BD14FEA03314FEA0530340341EA0B
:104D1000155140EA16506FF003020AE04FEAC32132
:104D20004FEAC520F40241EA555140EA56506FF06F
:104D3000020202EB2E4201EB025585EACE710AD047
:104D40005FEA440C18BF24F0004450F1000041F128
:104D5000000120EAD47040F2FE7C624500D270BDB2
:104D6000A84214BF4FF080444FF04044002E08BFCB
:104D70000024BEF1806FA8BFA1F1C041BDE8704022
:104D800080F282804FF0000001F1C04101F000414B
:104D900070479EEA0C0F0CEA131518BF95EA0C0F2A
:104DA00006D04FF0000081EA030E0EF0004170BD06
:104DB00000F01CF88900013E00F007B800F009B8C7
:104DC0004FEA430C5FEA5C5C08D081EA030100F023
:104DD0005BB84FEA410C5FEA5C5CF6D14FF0000033
:104DE000014970470000FF070000F87F0EF1020E36
:104DF0002EF0030E5EF8046B364205D4012A43EB15
:104E0000030515F5001F12D8012841EB010C1CF514
:104E1000001F0CD80ED14FEAD17C15F5001F0CEB0A
:104E20004C0C0CF1020C08BF4CEBD37C04E04FF0AF
:104E3000080C01E04FEAD37C0CEB4C0526FA05F692
:104E400006F00706B6F1040C06D20EEB860CBDE8A0
:104E500070404CF0010C6047DFE80CF0090B0202D7
:104E60004FF000414FF00000A1F5002170BD194640
:104E70001046012851EB010418BFD4F5001484BF7B
:104E8000002001F0004170BD0808A0F500114FEAB4
:104E90003101704753EA010C17D41CF5801F58BF2D
:104EA000BCF5801F00F106808B4218BF704708BF19
:104EB0008242704707D713F5801F58BF11F5801F36
:104EC00019D48B4270479B4270471CF5801F08D550
:104ED000BCF5801FF7D5994218BF704708BF9042B4
:104EE00070474FF4001C1CEB430F38BF1CEB410F05
:104EF00001D2994270470FB40CBC03BCFFF7C1BE8E
:104F00005FEA410C5FEA5C5CACF580635B1C39D402
:104F1000D3F1340240F34580B2F1200314DA4FF0AC
:104F2000010C0CFA02FCACF101030340B3EB5C0290
:104F300020EA030008BF10EA0C0F98BF704710EB7F
:104F40000C0041F1000170470AD0C3F1200201FAC0
:104F500002FC012821FA03F101FA03F14CF10000EF
:104F60004FF0010C0CFA03FCACF10103B0F1004F5F
:104F700021EA030108BF11EA0C0F4FF0000088BFBF
:104F800061447047B3F1FF3F28BF50EAC12C01F0E4
:104F900000414FF0000084BF41F07C5141F47001AA
:104FA0007047B3F5806FB8BF704770B5FFF71EFF4D
:104FB00040DBB6BE10B591EA030F48BF83F0004353
:104FC0003FF5A2AB841A71EB030C07D212198CF0D7
:104FD000004C43EB0C03001B61EB0C01DFF8A4E178
:104FE0004FEA1154A4EB135C1EEA430F18BF9EEA6C
:104FF000445F00F0B08023EA6E03524221EA04517C
:10500000C3EB6E0338BF5B1EDCF1200E25D322FA02
:105010000CFE10EB0E0043FA0CFE41EB0E01CCF13E
:10502000200E03FA0EFE10EB0E0051F10001CCF140
:10503000200E29D412FA0EF201EB0451BDE8104003
:1050400058BF7047401C1CBFB2F1004F704700288A
:105050000CBF491C20F00100704712EB020E43EB1D
:10506000030218BF4FF0010E4EEA4202ACF1200CD1
:10507000DCF11E0E54D943FA0CFE10EB0E0051F178
:10508000FF31CCF11E0ED5D50EF1010E12FA0EFE37
:10509000404141EB010101EB445C5FEA5C5C10D9EB
:1050A00010EBDE7001EB045138BFBEF1004FBDE8DC
:1050B000104018BF704700280CBF491C20F00100A9
:1050C000704730D24FEAD42C11F5001124F400645B
:1050D0001BD0B1FA81F20B3AA41AA41ED2F120031C
:1050E000914030FA03F31943904001EBCC71002C4E
:1050F00001EB0451BDE81040A8BF704701F1C04169
:105100004FF0000001F000417047B0FA80F310FA50
:1051100003F100D110BDE41A173C4805C90AE4E7C1
:1051200001EB045110BD491001EB0451BDE81040E2
:105130004FEA300002E04FF0000170474A0008BF1C
:105140000042F8D0B2F5001F28BF704701F00041BF
:105150004FF0000070479EEA445F07D011EA5E0FEF
:10516000BDE8104004BF002100207047BDE810409A
:1051700070B5FFF73BFE00BF40DFF63E83F0004115
:10518000104670470000E0FF4FF04070E1EE100A5B
:105190007047FBF77FBB000000000102030401021F
:1051A0000304060708090000417574196F240F40B5
:1051B0002EBAACDA271210404032C4C178C6104073
:1051C000661330AC68461140E029CEF6B9FA1140BA
:1051D0000101CEFEA97A12408021D82BFB2E13406C
:1051E0002019E2603C631440C010EC957D97154097
:1051F0006008F6CABECB164000000000006063C025
:1052000000000000006063C000000000006063C098
:1052100000000000006063C000000000006063C088
:1052200000000000006063C000000000006063C078
:1052300000000000006063C000000000006063C068
:1052400000000000006063C00000000000C062C0F9
:105250000000000000C062C00000000000C062C08A
:105260000000000000C062C00000000000C062C07A
:105270000000000000C062C00000000000C062C06A
:105280000000000000C062C00000000000C062C05A
:105290000000000000C062C020AEA036E07D0B37E9
:1052A000A017083660F0AF3660F0AF36403D2E36BE
:1052B000C0AFD235000D993620A5633680A33137B3
:1052C0004061223760DE353640466B36A032BF364D
:1052D000A032BF36A00ECB35E0625436A044393739
:1052E000A00ECB35809AF436001F1337E050DA3524
:1052F00040466B36809AF43680A33137807F3D3646
:105300000016D636A03BFC36C0C14C36809AF43627
:1053100060DE353680A33137809AF4368091B73617
:1053200060022A3700FB1E3660F0AF36A0443937E2
:10533000209C2636000D993660D5F835000D99363B
:10534000C0AFD2354034F135C0CA893640466B36DD
:10535000C0B80F36807F3D36A044393760022A3707
:10536000C0C14C3602400000000000A00000000058
:1053700005400000000000C8000000000C400000D4
:105380000000409C00000000194000000020BCBE4E
:105390000000000034400000BFC91B8E0000000464
:1053A000B5400000504BCFD06607E2CF01000000AF
:1053B0006C4100003E8251AADFEEA73401000000DC
:1053C000D9420000DCB5A0E23A301F97FFFFFFFF93
:1053D000B4450000FD25A0C8E9A3C14FFFFFFFFFB2
:1053E000FF3F00000000008000000000FF3F0000C1
:1053F000000000800000000034540008000000207D
:10540000BC000000C4010008F0540008BC000020EB
:10541000FC0B0000E00100081C000000430000003D
:10542000F8FFFFFF0C0000000E0000000F0000005E
:105430002E0000001E00000000000000007A030A99
:10544000000000000000000000000000000000005C
:105450000100000000000000000000000001010148
:10546000000000000000000000000000000000003C
:105470000000000000000000000000008050DE1965
:105480001409070200010000080000006400000089
:105490006400000080000000000000002000000008
:1054A00000000001010100000000000000000000F9
:1054B00000000000000000000000000000000000EC
:1054C00000000000000000000000000000000000DC
:1054D000000000008025DB338025000050C3000061
:1054E00014000000A0860100F04902000101FF0045
:040000050800018965
:00000001FF
