:020000040800F2
:10000000180D00203D020008931B0008AB1A0008E1
:10001000911B0008C10700084D35000800000000D2
:100020000000000000000000000000002321000884
:10003000C307000800000000B51B0008292F0008B6
:10004000570200085702000857020008570200082C
:100050005702000857020008C5070008CB07000830
:1000600057020008D107000857020008570200088D
:1000700057020008570200085702000857020008FC
:1000800057020008570200085702000857020008EC
:1000900057020008570200085702000857020008DC
:1000A00057020008570200085702000857020008CC
:1000B00057020008812F0008570200085702000865
:1000C00057020008570200085702000857020008AC
:1000D0005702000857020008E134000857020008E0
:1000E000570200085702000857020008570200088C
:1000F000570200085702000857020008570200087C
:10010000570200085702000857020008570200086B
:10011000570200085702000857020008570200085B
:10012000570200085702000857020008570200084B
:10013000570200085702000857020008570200083B
:10014000570200085702000857020008570200082B
:10015000570200085702000857020008570200081B
:10016000570200085702000857020008570200080B
:10017000570200085702000857020008000000005C
:10018000570200085702000800F002F800F047F894
:100190000AA090E8000C82448344AAF10107DA45E2
:1001A00001D100F03CF8AFF2090EBAE80F0013F0ED
:1001B000010F18BFFB1A43F001031847C0420000AB
:1001C000E0420000103A24BF78C878C1FAD852073C
:1001D00024BF30C830C144BF04680C6070470000C1
:1001E0000023002400250026103A28BF78C1FBD840
:1001F000520728BF30C148BF0B607047642900F028
:10020000A980782900F0E280732900F000820020A4
:1002100070471FB504F026F81FBD10B510BD00F0E3
:1002200087FA1146FFF7F5FF03F0D0F900F0A5FAC1
:1002300003B4FFF7F2FF03BC03F089F909488047D4
:1002400009480047FEE7FEE7FEE7FEE7FEE7FEE7B8
:10025000FEE7FEE7FEE7FEE704480549054A064BD0
:10026000704700002D2F00088901000818060020A3
:10027000180D002018090020180900207047000000
:100280000FB4044910B503AA029800F0C5F910BCD8
:100290005DF814FB180000202DE9F0410E460446DD
:1002A000002020622046E168884730B3252805D029
:1002B000D4E901219047206A401CF2E7E16820461A
:1002C00000278847050018D0A5F14100192802D859
:1002D00020354FF400673246294620462760FFF755
:1002E0008DFF40B1012804D0F61D26F00706083620
:1002F000D8E7361DD6E72846DAE7206ABDE8F08160
:1003000070B50C460546012A05D02878800600D530
:10031000EA69002302E0012305E05B1C934202D25C
:10032000E05C0028F9D1A869E618C01AA861286A1B
:10033000184428622846AFF3008004E0D5E9012183
:1003400014F8010B9047B442F8D32846AFF300806D
:1003500070BD00002DE9F0410646002410687529A3
:10036000314616A510D0AFF30080002802DA4042D3
:1003700013A507E031688A0701D512A502E04907F5
:1003800004D511A5012401E0AFF3008000210A2269
:1003900006F1240709E0B0FBF2FCB0FBF2F302FB2C
:1003A0001C00303078541846491C0028F3D12346ED
:1003B0002A463046BDE8F04100F0BEB8000000001B
:1003C0002D0000002B0000002000000070B5044646
:1003D0000D4621461068AFF300802188090502D53B
:1003E0000F4A7A4402E00E4A7A440E32002104F1A8
:1003F000240305E000F00F060009965D5E54491CD9
:100400000028F7D120780023000704D5702D02D0F2
:1004100009B1022311322046BDE8704000F08CB8CB
:100420006E40000010B5431C02E010F8011B71B1D2
:100430008107FAD14FF0013202C88C1A8C4314EABA
:10044000C211F9D0C01A0A0603D0C01E10BDC01ACE
:1004500010BD0A0401D0801E10BD0902FCD0401E50
:1004600010BD032A40F2308010F0030C00F015801C
:1004700011F8013BBCF1020F624498BF11F801CBA7
:1004800000F8013B38BF11F8013BA2F1040298BF0C
:1004900000F801CB38BF00F8013B11F0030300F076
:1004A000CD80083AC0F0088051F8043B083A51F872
:1004B00004CBA0E80810F5E7121D5CBF51F8043B1F
:1004C00040F8043BAFF30080D20724BF11F8013B92
:1004D00011F801CB48BF11F8012B24BF00F8013BF4
:1004E00000F801CB48BF00F8012B70474FF0000225
:1004F0000429C0F0128010F0030C00F0D380CCF17E
:10050000040CBCF1020F18BF00F8012BA8BF20F8A3
:10051000022BA1EB0C0100F0C5B85FEAC17C24BF3F
:1005200000F8012B00F8012B48BF00F8012B7047A1
:1005300070477047704770472DE9F0470D46994660
:100540009246044600F124080168880604D5E06953
:1005500021F01001216000E00120A84201DD471BCD
:1005600000E00027A1697A1902EB0900081AA061CE
:100570002078C00602D42046AFF30080002608E0B1
:10058000D4E901211AF806009047206A401C761C25
:1005900020624E45F4DB2078C0060AD52046AFF332
:1005A000008006E0D4E9012130209047206A401CF9
:1005B0002062381EA7F10107F4DC07E0D4E901212D
:1005C00018F805009047206A401C2062281EA5F1FB
:1005D0000105F3DC2046AFF300802078000602D549
:1005E0000220BDE8F0870120FBE710B5436913B195
:1005F000AFF3008001E0FFF783FE012010BD127809
:1006000000F124010A7000224A700122EDE711680E
:100610004FF0FF32E9E70000074B70B50D467B4411
:1006200000F06BF80446284600F07AF810B14FF05D
:10063000FF3070BD204670BD932F000010B5203AEA
:10064000C0F00B80B1E81850203AA0E81850B1E88B
:100650001850A0E81850BFF4F5AF5FEA027C24BF41
:10066000B1E81850A0E8185044BF18C918C0BDE838
:1006700010405FEA827C24BF51F8043B40F8043B01
:1006800008BF7047D20728BF31F8023B48BF11F8B6
:10069000012B28BF20F8023B48BF00F8012B704710
:1006A0004FF0000200B5134694469646203922BF0B
:1006B000A0E80C50A0E80C50B1F12001BFF4F7AF56
:1006C000090728BFA0E80C5048BF0CC05DF804EB38
:1006D000890028BF40F8042B08BF704748BF20F8A6
:1006E000022B11F0804F18BF00F8012B704700005B
:1006F00001694A1C02610878704700B58FB0CDE9E6
:1007000001310021059105497944CDE903101146D5
:100710006846FFF7C1FD0FB000BD0000E5FFFFFF19
:10072000007B00F08000704700487047B80500204B
:100730007546FFF7F9FFAE4605006946534620F0BF
:100740000700854618B020B5FFF786FDBDE82040BC
:100750004FF000064FF000074FF000084FF0000B7D
:1007600021F00701AC46ACE8C009ACE8C009ACE830
:10077000C009ACE8C0098D4670470446AFF300805D
:100780002046FFF755FD00000B484FF47A710068D2
:10079000B0FBF1F0401EB0F1807F0BD24FF0E021B2
:1007A0004861064AF02082F8140D00208861072075
:1007B00008617047FEE70000080000200FE000E03D
:1007C000FEE77047012000F0A7B8022000F0A4B8AF
:1007D000082000F0A1B800002DE9F043274887B0B9
:1007E0000025016841F004010160016801F0040185
:1007F0000591016841F0010101600068082600F0E0
:10080000010000960327059002240397DFF87090FB
:10081000CDE901546946484600F08AF84FF00108D6
:10082000CDF800800397CDE90154164D694628465E
:1008300000F07EF8144FCDF80080CDE901746946D0
:10084000284600F075F80096CDE9017469464846DF
:1008500000F06EF800220221062000F0ADF906201B
:1008600000F09EF900220221092000F0A5F90920DC
:1008700000F096F907B0BDE8F08300003038024080
:1008800000080240000002400000111070B506464A
:10089000642002F067FE124D124C3046012E0ED03D
:1008A000082E0BD1014610A0FFF7EAFCD4F8BC02D9
:1008B00098B10020C4F8BC020320287070BD014626
:1008C0000FA0FFF7DDFCD4F8B00220B10020C4F87F
:1008D000B0020120F1E70120F9E70120EAE700007A
:1008E0000000002000804142BDF8C8EBC1CB706918
:1008F0006E33D6D0B6CF3A2025780D0A000000001E
:10090000BDF8C8EBC1CB70696E31D6D0B6CF3A20F6
:1009100025780D0A00000000044910B50A6802425B
:1009200002D00860FFF7B2FF10BD0000143C014088
:100930002DE9F84FDFF89491002209F1040A0AF139
:10094000040B4FF00F080BF1040E01260B689640C4
:100950003340B34271D14C68022C01D0122C11D11A
:10096000D40800EB84073D6A5407E40E08FA04FC3F
:1009700025EA0C05D1F810C00CFA04FC4CEA050C71
:10098000C7F820C007685400032591F804C0A540AB
:100990000CF0030CAF430CFA04FC4CEA070CC0F853
:1009A00000C04F68012F05D0022F03D0112F01D0B6
:1009B000122F11D18768D1F80CC0AF430CFA04FC98
:1009C0004CEA070CC0F808C04768B7430E79C6F375
:1009D000001696403E434660C668AE438D68A5400B
:1009E0003543C5604C68E4006AD5394C256845F448
:1009F00080452560246822F0030504F480440094B7
:100A0000344C2544D5F808789407260F08FA06F4E4
:100A1000A743314CA04201D1002429E02F4CA04231
:100A200001D1012424E02E4CA04201D102241FE078
:100A30002C4CA04202D103241AE041E02A4CA042EF
:100A400001D1042414E0294CA04201D105240FE077
:100A5000274CA04201D106240AE0264CA04201D135
:100A6000072405E0244CA04201D1082400E0092419
:100A7000B4403C43C5F80848D9F800404D464E689C
:100A80009C43F60300D51C432C60DAF80040554621
:100A90004E689C43B60300D51C432C60DBF8004035
:100AA0005D464E689C43F60200D51C432C60DEF880
:100AB000004075464E689C43B60200D51C432C602E
:100AC000521C102AFFF441AFBDE8F88F003C0140F2
:100AD000443802400030014000000240000402405F
:100AE00000080240000C02400010024000140240C6
:100AF00000180240001C024000200240006908402B
:100B000000D0012070470AB1816170470904FBE7FA
:100B100001480068704700000C000020024801688E
:100B2000491C0160704700000C0000200B4810B504
:100B3000016841F400710160016841F48061016065
:100B4000016841F480710160052000F055F80F2024
:100B500000F006F800F015F8002010BD003C02403F
:100B600010B5044600F05EF94FF47A71B0FBF1F075
:100B700000F008FD00222146501E00F01DF8002064
:100B800010BD08B50020009008BD00F01F02012133
:100B900091404009800000F1E020C0F880117047CA
:100BA00000F01F02012191404009800000F1E02087
:100BB000C0F8001170470000F0B40E4B1B68C3F37F
:100BC0000223C3F10704042C00D904241D1D072DA2
:100BD00001D2002300E0DB1E012606FA04F56D1E9B
:100BE0000D409D409E40761E164045EA0601F0BC31
:100BF00000F0D0BF0CED00E0064A00F007011068DD
:100C00004FF6FF03184040EA0120034908431060F3
:100C1000704700000CED00E00000FA052DE9F05FE0
:100C2000DFF8F8A104460F46DAF80000DFF8F0819B
:100C300000F00F02C8B27A49814641F2883608F1C5
:100C40000808BA4261D202468AF80020DAF80000A9
:100C500000F00F00B8427DD12078800707D5D8F882
:100C60000020A36822F0F0021A43C8F80020207880
:100C7000C0072DD0606801281AD002281BD0032895
:100C800019D009688907002964DAD8F800104746A6
:100C900021F003010143C8F80010FFF739FF0546B2
:100CA000606801280FD0022818D003281CD027E044
:100CB00009688903E7E709688901E4E7FFF728FF86
:100CC000401BB04258D83868C0F381000128F5D1E4
:100CD00088E0FFF71DFF401BB0424DD83868C0F3D5
:100CE00081000228F5D17DE03868FFF711FF401B35
:100CF000B042F9D940E0FFF70BFF401BB0423BD8B0
:100D0000386810F00C0FF6D16CE02078800707D51A
:100D1000D8F80020A36822F0F0021A43C8F8002097
:100D20002078C0074CD06068012828D0022829D03C
:100D3000032827D009688907002949DAD8F8002054
:100D400022F003020243C8F80020FFF7E1FE054647
:100D5000606800E03CE001281DD0022829D003286B
:100D600038D0B3464646306810F00C0F28D0FFF755
:100D7000CFFE411B5945F6D90320BDE8F09F096815
:100D80008903D9E709688901D6E7FFF7C1FE411B4E
:100D9000594502D9F0E7B34646463068C0F38100B2
:100DA0000128F2D10CE0FFF7B3FE411B594502D9EF
:100DB000E2E7B34646463068C0F381000228F2D12C
:100DC0008AF80090DAF8000000F00F00B84209D06D
:100DD0000120D2E744462068FFF79AFE401BB0424C
:100DE000F9D9C9E72078400707D5D8F80010E2689C
:100DF00021F4E0511143C8F800102078000708D50D
:100E0000D8F80010226921F4604141EAC201C8F813
:100E100000100F20FFF7A4FE0020AEE7003C0240C8
:100E20000038024010B500F043F808490968F02284
:100E300092FAA2F201F0F001B2FA82F2D140044A31
:100E4000515CC8400349086010BD000008380240EA
:100E5000814200080800002010B5FFF7E3FF0749B2
:100E600009684FF4E05292FAA2F201F4E051B2FAAA
:100E700082F2D140024A515CC84010BD083802409D
:100E80008142000810B5FFF7CDFF074909684FF40C
:100E9000604292FAA2F201F46041B2FA82F2D140C9
:100EA000024A515CC84010BD083802408142000827
:100EB00030B51948006810F00C01184812D04410E1
:100EC00004290ED008290DD1134A121F1168136886
:100ED00001F03F015D0247F6C07304D5B4FBF1F0A9
:100EE00003E0204630BDB0FBF1F01168194093FAE1
:100EF000A3F3B3FA83F3D940484311684FF4403267
:100F000092FAA2F201F44031B2FA82F2D140491CC5
:100F10004900B0FBF1F030BD083802400024F40075
:100F20002DE9F84F04460078DFF8FCA2BF4DC0075A
:100F30004FF0000648D0DAF800105046C1F38101A6
:100F4000012908D00068C0F3810002280AD1281DB9
:100F50000068400206D52868800335D560680028FF
:100F600073D031E0DFF8C49209F1020989F800601A
:100F7000FFF7CEFD074641F2883804E0FFF7C8FDD1
:100F8000C11B41457AD828688003F7D4207989F8B5
:100F90000000606860B1FFF7BBFD074604E0FFF7A3
:100FA000B7FDC11B4145EDD828688003F7D50BE09C
:100FB000FFF7AEFD074604E0FFF7AAFDC11B414560
:100FC000E0D828688003F7D42078DFF8649280079F
:100FD00044D5DAF80010504611F00C0F4FF0F80825
:100FE00009D00068C0F3810002280BD18E48001F91
:100FF0000068400206D42868800714D5E0680128FC
:1010000023D110E0E068D0B10120C9F80000FFF75B
:101010007FFD074604E0FFF77BFDC01B6428B1D8C5
:1010200028688007F7D5286898FAA8F22169B2FAEB
:1010300082F220F0F8009140084328600EE0C9F8E1
:101040000060FFF765FD074605E0EAE0FFF760FD99
:10105000C01B642812D828688007F7D420780007BE
:1010600025D5DFF8C4817348616908F16C0881B146
:1010700001210160FFF74CFD074605E07EE0FFF728
:1010800047FDC01B642879D8D8F800008007F6D542
:101090000DE00660FFF73CFD074604E0FFF738FD72
:1010A000C01B64286AD8D8F800008007F6D42078DE
:1010B000400753D55C483830016841F080510160E9
:1010C0000068DFF8748100F080500090D8F80010BC
:1010D00041F48071C8F80010FFF71AFD074604E0DC
:1010E000FFF716FDC01B642848D8D8F80000C005DB
:1010F000F6D5DFF834B10BF1680B8BF80060FFF721
:1011000007FD074641F2883804E0FFF701FDC11BE7
:1011100041457ED8DBF800008007F6D4207A8BF8B2
:101120000000A06868B1FFF7F3FC074604E0FFF792
:10113000EFFCC11B41456CD8DBF800008007F6D5F9
:101140000CE0FFF7E5FC074604E0FFF7E1FCC11BFC
:1011500041455ED8DBF800008007F6D4A069E8B30B
:10116000DAF80010C1F3810102295AD0022806D012
:10117000C9F86060FFF7CCFC04464DE049E04F46FB
:10118000C9F86060FFF7C4FC064604E0FFF7C0FC46
:10119000801B64283DD828688001F7D4D4E9070172
:1011A000084347F6C07191FAA1F1626AB1FA81F180
:1011B0008A40A16A4FF0FF3303EB51014FF44033F3
:1011C00093FAA3F3B3FA83F399400A4310434FF021
:1011D000706292FAA2F2B2FA82F200E01FE0E16AD3
:1011E000914008431049091F086001203866FFF745
:1011F0008FFC044604E0FFF78BFC001B642808D832
:1012000028688001F7D50AE0FFF782FC001B6428FC
:1012100002D90320BDE8F88F28688001F4D40020AB
:10122000F8E70120F6E700000838024000380240E5
:1012300000004742800E47420070004070B5040035
:1012400004D094F85100002510B106E0012070BDD3
:1012500084F85050204600F033F8022084F8510002
:101260002068016821F040010160D4E901010843D0
:10127000D4E903121143084361690843218B01F447
:1012800000710843E1690843216A0843A16A0843E1
:1012900021680860A069042101EA1040616A0843DE
:1012A000216848602168E06A08612068C16921F40A
:1012B0000061C1616565012084F85100002070BDA6
:1012C00070472DE9F843044690F85100DDF820807E
:1012D000012801D022287ED169B162B15BB194F8B6
:1012E0005000012877D0012784F8507094F85100FD
:1012F000012803D005E00120BDE8F883322084F8FE
:10130000510000266665A263A387E3872163A38655
:10131000E386A664E664A06A4FF40055A84209D1AA
:101320002068016821F4005101602068016841F4DF
:101330000051016020680168490603D4016841F04A
:1013400040010160E0684FF48271B0F5006F6068A1
:1013500007D0002867D088426ED1E08E012862D085
:101360006AE020B188420CD1E08E012809D1206BBF
:1013700021680088C860206B801C2063E08E401EBE
:10138000E086E08E80B9A06AA84244D12068016856
:1013900041F4805101603EE02068C068A16B088084
:1013A000A06B801CA0639EE04346002202212046E1
:1013B00000F068FE002874D1206B21680088C860A6
:1013C000206B801C2063E08E401E0004000CE08631
:1013D00009D1A06A00E0C7E0A84204D120680168F2
:1013E00041F480510160434600220121204600F073
:1013F00049FE00286FD12068C068A16B0880A06BEF
:10140000801CA063E08F401EE087E08E0028CBD1D7
:10141000606800286AD1434600220121204600F07E
:1014200031FEF0BBB8E7206B411C216321680078D6
:10143000C860E08E401EE086E08E98B9A06AA8429F
:1014400004D12068016841F48051016043460022C4
:101450000121204600F016FE18BB2068C068A16B71
:10146000087040E0434600220221204600F00AFEB8
:10147000B8B9206B411C216321680078C860E08EF8
:10148000401E0004000CE08607D1A06AA84204D1E7
:101490002068016841F48051016000224346012127
:1014A00000E018E0204600F0EDFDA0B92068C1681A
:1014B000A06B421CA2630170E08F401EE087E08EAB
:1014C0000028CFD1606888B9434600220121204618
:1014D00000F0D8FD08B103200EE72068C168A06BBA
:1014E000421CA2630170E08F401EE087A06AA84200
:1014F00010D1434600220121204600F0C3FD18B15F
:10150000606D40F002000FE02068C068ADF8000098
:10151000BDF80000434601228021204600F0B2FDC4
:1015200020B1606D40F020006065D4E784F8517010
:1015300020688168A26AC1F30011AA4210D179B172
:10154000616D41F002016165016821F400510160A3
:101550002068016841F40051016084F85060CAE6D7
:1015600084F850600020C7E60220C5E64FF0E02175
:101570000428086903D020F004000861704740F097
:101580000400FAE710B5401EB0F1807F01D30120BE
:1015900010BD4FF0E02460610F21601700F0FAFAEF
:1015A0000020A06107202061002010BD7047704717
:1015B00010B5040003D094F8390010B107E0012001
:1015C00010BD002084F83800204600F00DF80220FD
:1015D00084F83900211D206801F0EEFC012084F818
:1015E0003900002010BD000008B500680B49884292
:1015F00012D10B48016841F002010160006803222A
:1016000000F00200009001211D20FFF7D5FABDE88F
:1016100008401D20FFF7C4BA08BD000000040040C8
:10162000403802400168CA6842F00102CA6000689E
:10163000016841F00101016000207047704770B5FA
:101640000446006801694FF00005C943890715D4B5
:10165000C168C943890711D4E91E016101202076C0
:10166000206880698007204602D0FFF7E7FF04E08A
:1016700000F098F8204600F096F825762068016979
:10168000C943490717D4C168C943490713D46FF048
:1016900004010161022020762068806910F4407FF7
:1016A000204602D0FFF7CAFF04E000F07BF8204696
:1016B00000F079F8257620680169C943090716D436
:1016C000C168C943090712D46FF008010161042001
:1016D00020762068C0698007204602D0FFF7AEFF61
:1016E00004E000F05FF8204600F05DF82576206801
:1016F0000169C943C90617D4C168C943C90613D4CF
:101700006FF010010161082020762068C06910F494
:10171000407F204602D0FFF791FF04E000F042F83E
:10172000204600F040F8257620680169C943C907C2
:1017300008D1C168C943C90704D1891E0161204687
:1017400000F032F820680169C943090609D4C1686C
:10175000C943090605D46FF0800101612046FFF7F7
:1017600025FF20680169C943490609D4C168C943F6
:10177000490605D46FF040010161204600F03AF8B7
:1017800020680169C94389060BD4C168C943890629
:1017900007D46FF0200101612046BDE87040FFF7DB
:1017A00006BF70BD704770470E49884218D10E4978
:1017B000D1F8B40260B10020C1F8B4020B4A10683D
:1017C0004FF47A71B0FBF1F301FB130010B104E0A8
:1017D0000120F1E70649012008701068401C1060E4
:1017E0007047000074020020008041421C0000206D
:1017F000000000207047704738B50168044608684B
:10180000CA68C0F3000002F4807238B132B10868CF
:1018100048680090E06B40F00100E06308684A69A6
:10182000C0F3400002F0010238B132B108684868E4
:101830000090E06B40F00400E06308684A69C0F380
:10184000800002F0010238B132B1086848680090A7
:10185000E06B40F00200E06308684A69C0F3C00032
:1018600002F0010238B132B1086848680090E06BBC
:1018700040F00800E0630868C968C0F3401001F058
:10188000200118B111B1204601F0A0FC20680168C8
:10189000C068C1F3C01100F0800019B110B120463A
:1018A00001F0A2FD21680868CA68C0F3801002F048
:1018B0004002012568B162B1CA68204622F04002A8
:1018C000CA6094F8391032290CD080F8395000F0F1
:1018D000EBF8E06B002804D084F839502046FFF77D
:1018E0008AFF38BD222180F83910F0E770B5040076
:1018F00004D094F83900002510B106E0012070BD35
:1019000084F83850204600F021F8022084F839008D
:101910002068C16821F40051C160204601F0AAFC92
:101920002068016921F4904101612068416921F03A
:101930002A0141612068C16841F40051C160E5633A
:10194000012084F83900002070BD000030B5044645
:1019500000681F4987B0884238D11E48016841F0AD
:1019600001010160006800F0010005901948103085
:10197000016841F4003101600068012100F4003089
:101980000590042000900220CDE90101039007207A
:10199000114D049069462846FEF7CAFF08200090C2
:1019A00069462846FEF7C4FF2068C16821F040015F
:1019B000C1602068C16841F02001C1602620FFF7A6
:1019C000EFF8032211462620FFF7F6F807B030BDE6
:1019D0000044004030380240000002402DE9F0474A
:1019E000044690F8390099460D46012801D0122886
:1019F00057D125B31AB394F83800012851D00126E5
:101A000084F838600027E76394F83900122819D069
:101A1000222084F83900A285E2854FF48058E08DB9
:101A20004B46401EE085A0684FF0000240454FF055
:101A30002001204616D101F00AFDB0B904E00120D2
:101A4000BDE8F0873220E4E720690028206840687C
:101A500003D0C1B225F8011B12E0C0F3080125F83C
:101A6000021B0DE001F0F3FC08B10320E8E7206958
:101A700000282068406801D000F07F0005F8010BC5
:101A8000E08D0028CBD194F83900322805D084F8B5
:101A9000396084F838700020D2E7122084F83900C9
:101AA000F7E70220CCE770477047FEE770B51B48A8
:101AB00086B00025016841F001010160016801F074
:101AC00001010591016841F004010160016801F024
:101AD00004010591016841F0800101600068032460
:101AE00000F08000059002200126CDE90204CDE936
:101AF000006569460A48FEF71BFF700303948DE8F2
:101B0000610069460748FEF713FF0C200090694604
:101B10000548FEF70DFF06B070BD000030380240EA
:101B20000000024000080240001C0240164810B5A8
:101B3000016886B041F0080101600068134C00F0B4
:101B4000080005904FF47040009001200190029031
:101B50000320039069462046FEF7EAFE01221103A6
:101B60002046FEF7D0FF012251032046FEF7CBFFAF
:101B7000012291032046FEF7C6FF0122D103204631
:101B8000FEF7C1FF06B010BD30380240000C024025
:101B9000FEE770470907090E002806DA00F00F007B
:101BA00000F1E02080F8141D704700F1E02080F87B
:101BB0000014704770470000074806490160074954
:101BC0004160074981600749C160074901610749D0
:101BD000416170471D260008B00200206D2C0008EE
:101BE000412D0008092600082D2D0008D12B0008E2
:101BF0002DE9F0412DED068B804682B0A84E30686D
:101C0000A84CA94F04F12005E060E87A01280CD126
:101C100021691C201C3100F0E5FF2069007F00F0E5
:101C20003F0057F8200000F0E9FE4021122001F0AB
:101C300093F8FF21112001F08FF8032020705FEA54
:101C4000887018D53068E060E87A01280CD12169E5
:101C50001C201C3100F0C6FF2069007F00F03F000F
:101C600057F8200000F0CAFE0221122001F074F89B
:101C700000F0B4FD6070A87A012807D13068E168EF
:101C8000401A6169884201D904202070216912201C
:101C9000123100F0A7FF2069807C800608D5202142
:101CA000122001F059F8A87A012800D002202070F3
:101CB0006946192000F096FF9DF80000010605D541
:101CC000C043401CC0F38500404200E08008764ECF
:101CD00076492071F03E9FED76AB9FED779B2868AB
:101CE000884294F9040028D2002817DA01F0DBFFBB
:101CF00041EC180B687953EC1A2B06EBC00090ED01
:101D0000000B51EC100B02F035F853EC192B01F0DD
:101D100061FD41EC100B9FED6A1B27E021691A2041
:101D20001A3100F05FFF2069807E01F0D3FF41ECA3
:101D3000100B5D496879A03931E0002821DA01F003
:101D4000B2FF41EC180B687953EC1A2B06EBC0007C
:101D500090ED000B51EC100B02F00CF853EC192B2A
:101D600001F038FD41EC100B9FED571B51EC100BAF
:101D700053EC112B01F02EFD41EC100B53EC182B02
:101D800013E021691A201A3100F02CFF2069807EAF
:101D900001F0A0FF41EC100B43496879503901EB89
:101DA000C00090ED001B53EC112B51EC100B01F017
:101DB00011FDC4E906010020454906460E54401CA9
:101DC000FF28FBDDA87A012843D0216910201031BB
:101DD00000F008FF687A012854D0216913201331DC
:101DE00000F000FF2069C17CE180017C41730D207F
:101DF00000F0B2FF2069C17C354800F027FF294977
:101E00003448083100F04AFC3248FEF70BFB48B179
:101E100000F022FF2F48FEF705FB2E490E542EA09E
:101E2000FEF72EFA20693F214174FF2180F824102B
:101E3000242000F091FF2069417C112000F08CFFEC
:101E4000FF21122000F088FF02B0BDEC068BBDE838
:101E5000F0812069C17B41730D2000F07DFF687A1D
:101E600001280BD021691320133100F0BBFE20693B
:101E7000C17CE180164800F0E9FED3E7206990F8C4
:101E80002210F6E7206990F82210E180017C41736E
:101E90000D2000F061FF206990F82210ACE70000EF
:101EA0001C0000202800002088430008008F4233D7
:101EB00000000000000024400000000000C065C0D9
:101EC000000000000000104000000000000018406A
:101ED00038030020380400204C6F52612052583AD9
:101EE0002025730D0A00000070B5012000F0ECFC05
:101EF000254C3F2120694174112000F02DFF04F191
:101F00002005E87A01282BD02169FF2081F82400E0
:101F1000206990F82410242000F01EFF2169002081
:101F2000022201F83F0F4870402000F01BFFA87A02
:101F3000012827D02069C17B41730D2000F00CFFE0
:101F4000052000F0C1FC4FF480711048FEF7CEFA76
:101F5000686960610E480068E0600220207070BD12
:101F60002169287B81F824001C201C3100F03AFEF6
:101F700020690849007F00F03F0051F8200000F080
:101F80003DFDC5E70620DCE72800002038030020DF
:101F90001C00002088430008F0B5214887B00025C8
:101FA000016841F002010160006800F00200059044
:101FB0001B481030016841F480410160006802262E
:101FC00000F4804005904FF4604001278DE8C10087
:101FD0000520CDE9036069461248FEF7A9FC134CC1
:101FE000114820604FF48270C4E901053002C4E951
:101FF0000570C4E903563820C4E907050720656267
:10200000C4E90A502046FFF719F92068016841F039
:1020100040010160FF2000F00BF807B0F0BD0000A8
:102020003038024000040240003800401C0200200A
:1020300001B582B04FF47A700090012301AA02A981
:102040000248FFF73EF99DF804000EBD1C02002077
:102050000B4A10B511680B6823F040030B60116840
:102060000B684FF6C77423400B6011680B6803437D
:102070000B601068016841F04001016010BD000074
:102080001C0200202DE9F0471D4690460F460446ED
:10209000FEF73EFD06465FEA08004FF000084FF4E9
:1020A000005A4FF0010926D034E0681C23D025B136
:1020B000FEF72EFD801BA8421DD92068416821F043
:1020C000E00141602068016821F040010160A06AE0
:1020D000504509D12068016821F400510160206851
:1020E000016841F40051016084F8519084F85080F7
:1020F0000320BDE8F0872068806837EA0000D4D16B
:102100000DE0681C06D0002DD7D0FEF701FD801B26
:10211000A842D2D82068806837EA0000F1D00020B9
:10212000E7E7704730B50C48C16991F8270000F027
:10213000070391F83000C4095B1C10F0060200D0C0
:10214000012291F83210234402251A4405EAD000F6
:102150001144084430BD000068000020044A53893F
:102160000B80002353810A880249FEF77AB90000E8
:1021700068000020B80400202DE9F05FDA4F012448
:102180002DED028B38467A78C069DFF86093D84D20
:102190004FF000084FF0050B4FF0200A00F140010E
:1021A00026460C2A7DD2DFE802F07C06629DF6F519
:1021B000F4F3F2F1F0EF90F83020D20601D54C2282
:1021C00000E00C2280F84020E12280F84120022229
:1021D000402000F0C7FD052000F0DEF94FF48071CB
:1021E000C248FEF783F9C0483830406801F072FDFC
:1021F00041EC180BFFF796FF01F06CFD9FEDBD1B46
:1022000053EC112B01F0B6FD53EC182B01F096FBAB
:102210009FEDBA1B53EC112B01F0ACFD41EC100B00
:1022200001F05AFA01F03FFD9FEDB61B53EC112B64
:1022300001F0D0FA01F00AFD80B200EB50003862E4
:102240007862286838617861F869A02180F83510D3
:10225000352000F081FD87F8028087F8038087F839
:10226000048087F80580A7F80A8002202DE100F09D
:10227000E7FC012804D1B87810B9BE7028687861ED
:1022800000F0D6FC012815D1B87898B1F87888B953
:10229000FE7000F059F987ED0C0B00F037F9B862C9
:1022A00000E090E000F06AF9F87128683861786120
:1022B00003207870B878F97888430DD02868796958
:1022C000401A796A884207D97E70F869407B40F0ED
:1022D00020010D2000F040FDF878B97808433979E5
:1022E00008433BE07889B0F5807F01D90620ECE017
:1022F00000F09CFC01282CD17889797908430DD114
:10230000F86990F83010090605D5774801210A30A0
:1023100000F09CFC02E090F83200788179897879AD
:102320000A1AF96991F8351001F03F018A420ADD75
:10233000484400F08BFCF869797990F8350000F09A
:102340003F00084404E0D1B2484400F07FFCB87A72
:10235000787100F069FC012802D0387958B3BDE0EB
:1023600028683861798978794FF0040551EA0002CC
:1023700017D1F86990F8301009060DD55A48012197
:102380000A3000F063FC0AE0A5E0A0E075E051E04F
:1023900039E02BE01DE017E090F832007881B97A3F
:1023A0007879091AC9B2484400F050FCB87A7871BB
:1023B0003E717D7092E028683969401A396A884216
:1023C00001D987F801B089E087F805807E70022482
:1023D00084E087F80580A7F80A80407B40F0200160
:1023E0000D2000F0B9FC7E70032477E087F80580AB
:1023F000A7F80A80407B40F020010D2000F0ACFCE3
:102400007E7006246AE080F8406080F841A00222D5
:10241000402000F0A7FCF869982180F8351035209D
:1024200000F09AFC032000F0B7F80820787087F8D5
:10243000068053E000F0FEFB01284FD1F86990F8C8
:102440003000000604D5284801210C3000F0A6FC1D
:10245000B889411E3F2901D8387002E0504687F8FC
:1024600000A0C1B2214800F099FCB879397808443D
:10247000B8712868B861092027E000F0D7FB90B94F
:10248000B989B8790A1A39788A4206DD484400F0D9
:1024900085FCB8793978084404E0D1B2484400F0AA
:1024A0007DFC387BB87100F0BFFB012806D128689D
:1024B000B8610A207870012000F06EF82868B969C8
:1024C000401AB0F57A7F09D90B20787006E087F8BA
:1024D0000180042402E087F801800524BDEC028B12
:1024E0002046BDE8F09F000068000020B8040020EE
:1024F0001C00002000000000000020400000000040
:1025000000408F40000000000000F03F10B50B4C71
:1025100002221B20E1691B3100F068FBE069B0F882
:102520001B0040BA01F0D6FB9FED051B53EC112BAD
:1025300001F020FCBDE8104001F058BB680000200D
:102540000000000080844E4010B5094C1120E16964
:10255000113100F047FBE069407C01F0BBFB9FEDCF
:10256000051B53EC112B01F005FC41EC100B10BDC9
:1025700068000020000000000000E0BF10B5054C1E
:102580000C20E1690C3100F02DFBE069007B400973
:1025900010BD00006800002070B50F4D04460020FB
:1025A000E969497821F0F80129728C4213D0032C93
:1025B00000D10120697A884202D0687200F0F3FBF2
:1025C000E869417801F0F80121434170BDE87040AD
:1025D000012000F0C1BB70BD6800002001494870B7
:1025E000704700006800002010B5054C0A46A18124
:1025F00001460448FDF735FF0720607010BD00005C
:1026000068000020B8040020034A12780AB100F0E4
:1026100045B8FFF7A3BD00002000002008B513490E
:10262000114808601249086000F036F800F01EFBFF
:102630006946062000F0D6FA9DF800100DA0FDF7BF
:102640001FFE05E00FA0FDF71BFE642000F08AFFCF
:102650009DF800006C28F5D10E490120087000F0AB
:1026600019FB00F027F808BDC802002084000020F4
:102670003800002054656D705265673D25640D0A71
:102680000000000048617264205350492045727276
:10269000210D0A002000002070470000034BDA885B
:1026A0000A800021D9800249FDF7DBBE2800002006
:1026B0003803002070B52A4C00202070012000F063
:1026C00003F900F099F8274D6F22691C012000F0F2
:1026D0008DFA216920206F220873691C012000F007
:1026E00041FBFF21092000F037FB0B21084600F0D9
:1026F00033FB23210C2000F02FFB2034206800F056
:102700007DF9A07900F00AFAE07900F07DF8207AEE
:1027100000F032F9607900F0E9F9607A00F08EF8A3
:1027200040F2FF3000F024FA207E00F03FF9012053
:1027300000F09CF80C2000F04BF90B49206888420F
:1027400009D9802000F0E2F8012000F0F5F814200B
:10275000207100F077F9BDE87040012000F0B4B8B6
:1027600028000020C80200200057A61670B5184D9A
:102770001B2029691B3100F035FA05F120041549A9
:10278000206888422869C07E0ED201F0A3FA41EC8D
:10279000110B6079104901EBC00090ED000B51EC7A
:1027A000110B53EC102B0EE001F094FA41EC100BDE
:1027B00009496079503101EBC00090ED001B51ECEC
:1027C000100B53EC112B01F005F841EC100B70BD10
:1027D00028000020008F4233E842000810B5054C65
:1027E0000C2021690C3100F0FDF92069007B4009C3
:1027F00010BD00002800002002480169422041313C
:1028000000F0F0B92800002070B50A4D04461D20E4
:1028100029681D3100F0E6F92A68507F00F0F100C8
:1028200040EA4400C1B251771D2000F095FA0248F9
:10283000C47170BD380000204800002070B5094DFB
:1028400004461D2029681D3100F0CCF92A68507F0C
:1028500000F0FE01214351771D2000F07DFA02486F
:10286000447270BD380000204800002070B50A4C4A
:10287000054626202168263100F0B4F9226812F8B6
:10288000260F00F0F70040EAC5011170BDE8704066
:10289000262000F061BA00003800002070B5094D14
:1028A000044631202968303100F09CF92A6812F87A
:1028B000300F00F0F80121431170BDE87040312065
:1028C00000F04ABA3800002070B50F4D04460020D1
:1028D0002969497821F0F801A9708C4213D0032CA2
:1028E00000D10120E978884202D0E87000F05BFA5C
:1028F0002869417801F0F80121434170BDE870403A
:10290000012000F029BA70BD2800002070B5094DE3
:10291000044609202968093100F064F92A68507AD0
:1029200000F07F0121435172BDE87040092000F0A2
:1029300013BA00003800002070B50E4C05464D203B
:1029400021684C3100F04EF921680920093100F06E
:1029500049F92168487A00060AD515B1872081F81F
:102960004C0091F84C10BDE870404D2000F0F4B9D7
:102970008420F4E73800002070B50A4D04461E207C
:1029800029681E3100F02EF92A68907F00F0FB00C4
:1029900040EA840191771E2000F0DEF902480472BB
:1029A00070BD00003800002048000020064910B526
:1029B0000968044681F822000146222000F0CCF983
:1029C0000248047610BD00003800002048000020B6
:1029D00070B5094D0446022229682020203100F0FC
:1029E00005F92968200A022201F8200F20204C70E6
:1029F000BDE8704000F0B6B9380000200D4910B5B0
:102A0000086001F067F99FED0C1B53EC112B00F0EF
:102A100095FF01F01BF90A49020C096801F8062F1D
:102A2000020A4A7088700322BDE81040062000F0B8
:102A300099B90000480000200000000080844E404A
:102A40003800002070B5244D04460920296809315A
:102A500000F0C8F829684D204C3100F0C3F8286810
:102A6000417A0A0628D590F84C3087229A4303D041
:102A7000022C0EDA02240FE0052C01DA052402E014
:102A8000142C00DD142401F0F00141F07001621FEC
:102A900007E0112C00DD112401F0F00141F070017C
:102AA000A21E02F00F0211434172C9B2092000F0C8
:102AB00053F90A48047170BD4FF0FF32944201DAB5
:102AC000144602E00E2C00DD0E2401F0F00141F06E
:102AD0007001621CE5E7000038000020480000207B
:102AE00001490870704700002800002070B5094DAA
:102AF00004461D2029681D3100F074F82A68507FB3
:102B000064F31F10C1B251771D2000F025F902486F
:102B1000447170BD380000204800002070B50446A4
:102B20000C2801D90C2408E0062C02D24FF0060430
:102B300000E002D14FF0050001E04FF00300FFF785
:102B4000ADFE094D1E2029681E3100F04BF82868A3
:102B5000817F64F31F11C9B281771E2000F0FCF859
:102B60000248847170BD0000380000204800002039
:102B700070B50C4D0446022229681E201E3100F05B
:102B800035F82968032202EA142211F81E0F00F01A
:102B9000FC00104308704C70BDE8704002221E20FB
:102BA00000F0E0B83800002010B5074A064CD27A91
:102BB000203C02B1FF2161818AB201460348FDF742
:102BC00050FC0520207010BD480000203803002074
:102BD00003480078002801D1FFF7CEBA7047000003
:102BE00020000020012200F001B800002DE9F04192
:102BF0000C4F0E4600211546C7F8881200F07F00E2
:102C0000FFF716FA002405E0002000F059F93055CE
:102C1000641CE4B2AC42F7D30120C7F88802BDE8D7
:102C2000F081000000004242002070470020704701
:102C30000020704702210148FDF760BF00080240F4
:102C400008210148FDF75ABF000802400A46014624
:102C50000020FFF7CBBF00000348007808B1FFF762
:102C600085BDFFF771BC00002000002010B50120D9
:102C700000F050F8064C206821688142FCD000200A
:102C800000F048F820682168091A0629FBD310BD16
:102C90001C00002070B51C494A78824232D048702E
:102CA00008701A4D1A4C00284FF0000016D0FFF79C
:102CB0000BFE2868417841F080014170012000F04E
:102CC0004BF80120FFF700FE29680020022201F8DE
:102CD0003F0F4870402000F045F80CE0FFF7F4FD8E
:102CE0002868417801F07F014170012000F034F83C
:102CF0000120FFF7E9FD611CBDE870406F22012053
:102D0000FFF774BF70BD00002000002038000020D5
:102D1000C80200200449012803D00120C1F8900214
:102D200070470020FAE7000000004242034A127890
:102D30000AB1FFF739BFFFF757BC000020000020A1
:102D40000448007800284FF0010001D0FFF7C8BE0A
:102D5000FFF744BC2000002013B5012201A900F0B8
:102D600001F81CBD2DE9F0410B4F0E460021154620
:102D7000C7F8881240F08000FFF75AF9002404E0F9
:102D8000305DFFF755F9641CE4B2AC42F8D3012082
:102D9000C7F88802BDE8F081000042420A460146B9
:102DA0000020FFF7DFBF70471CB50AA0D0E9001074
:102DB000CDE900102820FFF74BF9012269460620D3
:102DC00000F04AF89DF800006C2801D001201CBDDD
:102DD00000201CBD00A5A5A5A500000030B5194820
:102DE00087B00025016841F010010160016801F021
:102DF00010010591016841F004010160006801249F
:102E000000F0040005901420CDE900040320CDE972
:102E1000024069460C48FDF78BFD022000900B48EC
:102E20000394CDE9010569460948FDF781FDFFF7E7
:102E3000B3F800F02FF80748C0F89052C0F8884265
:102E400007B030BD303802400010024000001110C1
:102E500000080240000042422DE9F0410C4F0E46AE
:102E600000211546C7F88812FFF7E2F880460024D3
:102E700005E0FF20FFF7DCF83055641CE4B2AC42FB
:102E8000F7D30120C7F888024046BDE8F081000072
:102E90000000424210B5094C2068016821F0400151
:102EA00001600020206160612046FEF7C7F92068BC
:102EB000016841F04001016010BD00001C020020CB
:102EC000FFF7B6B870B5174C92B00025266846F0EB
:102ED0008056266024680DF1240C04F0805411946F
:102EE000012400940194022406948CE80D006605E8
:102EF000CDE907616846FEF713F800B1FEE70CA9BB
:102F00000F2081E831004FF4A0500F904FF4805013
:102F1000109005210CA8FDF781FE002800D0FEE7E7
:102F200012B070BD40380240FDF7F8BD104801688E
:102F300041F4700101600F48016841F00101016036
:102F40000C4A00210832116002680B4B1A400260E3
:102F5000031D0A4A1A60026822F4802202600548B2
:102F60000C30016002495806803908607047000043
:102F700088ED00E000380240FFFFF6FE103000242C
:102F80000148FEF75CBB000074020020094A10B53E
:102F9000074BC2E900310021C2E90210104611615D
:102FA000FEF706FBBDE810400248FEF73BBB000001
:102FB0000004004074020020F0B50268234D244E46
:102FC000244FDFF894C0254B4FF0804EA84209D023
:102FD000704507D0B04205D0B84203D0604501D05B
:102FE000984203D122F070044A682243A8421BD0C1
:102FF000704519D0B04217D0B84215D0604513D0F3
:10300000984211D0164CA0420ED0164CA0420BD0C4
:10301000154CA04208D0154CA04205D0144CA0423B
:1030200002D0144CA04203D122F44074CA68224357
:1030300002608A68C2620A688262A84201D098422D
:1030400001D10969016301214161F0BD0000014026
:103050000004004000080040000C00400004014053
:103060000040014000440140004801400018004079
:10307000001C00400020004070B50120FFF724FC38
:10308000FF211220FFF768FE2C48F7220025C17AA5
:10309000A0F1200401293DD02069427480F8245019
:1030A000206990F824102420FFF756FE2069417C07
:1030B0001120FFF751FE2069A17A80F8221022200A
:1030C000FFF74AFE2069294685730E20FFF744FE6C
:1030D0002069817B41730D20FFF73EFE206990F847
:1030E00022101748FFF75AFE154916A0FDF7C8F839
:1030F00021694120022201F83F0F40204870FFF76C
:1031000031FEFF211220FFF727FEBDE870400320AB
:10311000FFF7DABB21694A74007B81F824001C2088
:103120001C31FFF75FFD20690A49007F00F03F0076
:1031300051F82000FFF762FCB2E7000048000020D1
:10314000380300204C6F52612054583A2025730DEB
:103150000A0000008843000870B5054615A0FDF779
:103160008FF808211220FFF7F7FD164C0721217078
:10317000A80716D504F12000C07A01280DD12169D5
:103180001C201C31FFF72EFD20690F49007F00F045
:103190003F0051F82000FFF731FC02211220FFF719
:1031A000DBFD0120FFF790FB00202070BDE87040A0
:1031B000FEF79ABE545820446F776E204952510D45
:1031C0000A000000280000208843000810B590F88D
:1031D0003910222903D0322901D0022010BD816884
:1031E000B1F5805F11D00169002901681FD04968DD
:1031F00001F07F03816A4A1C82620B70C18D491EF7
:103200000904090CC18518D02FE00269816A002ADF
:103210000268526805D0D2B20A80816A491C816274
:10322000ECE7C2F308020A80816A891CF7E74A6862
:10323000816A4B1C83620A70E0E70168CA6822F069
:103240002002CA6090F83910322910D00168CA688B
:1032500022F48072CA6001684A6922F001024A6160
:10326000012180F83910FEF71EFC002010BD12214C
:10327000F7E700002DE9F041044600680169E268C3
:1032800021F440510A4302612068C16849F20C628E
:1032900091432369A268E5691A4363692B431A4382
:1032A0000A43C2602068416921F44072A169114358
:1032B0004161E06964263225B0F5004F484A49492A
:1032C00020681DD0884201D0904269D1FDF7DAFD17
:1032D00000EBC00101EB00106168B0468900B0FB53
:1032E000F1F1B1FBF8F6FDF7CDFD00EBC00101EB0C
:1032F000001061688900B0FBF1F7FDF7C3FD68E0DD
:10330000884201D0904219D1FDF7BCFD00EBC0010D
:1033100001EB00106168B0464900B0FBF1F1B1FB70
:10332000F8F6FDF7AFFD00EBC00101EB001061689E
:103330004900B0FBF1F7FDF7A5FD18E0FDF78CFDA6
:1033400000EBC00101EB00106168B0464900B0FB22
:10335000F1F1B1FBF8F6FDF77FFD00EBC00101EBE9
:10336000001061684900B0FBF1F7FDF775FD00EB57
:10337000C00101EB001061684900B0FBF1F1B1FB45
:10338000F8F06FF01801484307EB800005EB0011DF
:10339000B1FBF8F0216866F31F108860BDE8F0818A
:1033A000FDF75AFD00EBC00101EB00106168B0466B
:1033B0008900B0FBF1F1B1FBF8F6FDF74DFD00EB34
:1033C000C00101EB001061688900B0FBF1F7FDF767
:1033D00043FD00EBC00101EB001061688900CCE700
:1033E000001401400010014090F83910122903D058
:1033F000322901D0022070478168B1F5805F016AEF
:103400000BD04A1C0262026809785160C18C491EC7
:103410000904090CC1840ED017E009880268C1F3C1
:103420000801516001690029016A02D0491C01624A
:10343000ECE7891CFBE70168CA6822F08002CA60D9
:103440000068C16841F04001C160002070472DE96B
:10345000F0471D4690460F460446FDF759FB0646C9
:103460005FEA08004FF000094FF0010808D030E093
:10347000681C05D095B1FDF74BFB801BA8420DD809
:103480002068006837EA0000F2D127E0681C20D0ED
:1034900025B1FDF73DFB801BA8421AD92068C16801
:1034A00021F08001C1602068C16821F02001C16065
:1034B0002068C16821F48071C1602068416921F0F1
:1034C0000101416184F8398084F838900320BDE817
:1034D000F0872068006837EA0000D7D00020F6E7C0
:1034E00038B5184800680068C043800622D44FF4FD
:1034F0007A73012269461348FEF770FA124A10885F
:10350000010417D441049DF800104FF0000304D5C6
:103510000A290ED140F4004012E00D290ED0C0F36C
:103520000D04084D401CC83D80B229551080C728A5
:1035300000D913800348FEF75FF938BD40F480409E
:103540001080F7E78401002014000020FEE7704798
:1035500010B504460420FEF709F80148046010BDC8
:103560001000002070B5054600244FF47A7603E081
:10357000304600F005F8641CAC42F9D370BD000081
:1035800070B54FF0E02500216C69094AAB691268FB
:103590005043AA699A42FCD002D2A3EB020302E094
:1035A000A4EB02063344194413468142F1D370BDA3
:1035B0001000002004490A685206FCD5024AC1B234
:1035C000121D1160704700000044004008B500253E
:1035D0008DF80050FDF7AAFA0723022208214FF4C4
:1035E000A870FFF76FFCFDF71DFC4FF47A71B0FB7C
:1035F000F1F0FDF7C7FFFDF7C7F842F2CF01092050
:10360000FFF7C4FC4FF4E13000F0D2F8A820FFF738
:103610009FFF0A20FFF7A6FFFEF788FAFEF746FA9B
:10362000FFF7DCFBFDF7D8F8FFF720FB05E020A053
:10363000FCF726FEC820FFF795FFFFF7B5FB002833
:10364000F5D11FA0FCF71CFEFEF7B6FA1F4C606018
:10365000006880472570FEF747FC1D20FDF795FAAE
:103660002078012803D02078032809D01AE025709B
:1036700060681521026916489047FFF7FDFC11E0CC
:10368000257069461220FFF7ADFA9DF8000041064B
:1036900002D5FEF7ADFA03E0010703D5FFF75CFDA5
:1036A000FEF722FC1D20FDF77BFA30BFD5E70000B6
:1036B0006C6F7261204572726F720D0A000000001B
:1036C0006C6F7261204F4B0D0A000000000000205B
:1036D0006E4200080000000000B52DED088B85B09B
:1036E000CDE900019DED000B51EC100B00F076FCD4
:1036F00041EC180B9DED000B53EC182B51EC100B0B
:1037000000F0C6FC41EC190B01989FED270B10F05F
:10371000004F53EC102B51EC190B9FED1FAB9FED9D
:1037200020BB0ED000F0EAFA0ED953EC1B2B51EC63
:10373000190B00F01DFC1CD214E000BF41EC180B6B
:1037400017E000F0DBFA06D253EC1A2B51EC180B01
:1037500000F09EFCF2E753EC1B2B51EC190B00F030
:1037600007FC06D853EC1A2B51EC180B00F032F87A
:10377000E4E78DED028B9DED000B18EE901A10EE34
:10378000900A61F31E0003909DED020B05B051EC11
:10379000100BBDEC088B00BD000000000000F03FE6
:1037A000000000000000E03F000000000000E0BF5B
:1037B0000749064AC1E9002000208860C860086106
:1037C00088610C2048610846FEF790B8004400402C
:1037D0008401002010B591EA030F48BF83F0004335
:1037E00000F15E84841A71EB030C05D2121943EBCD
:1037F0000C03001B61EB0C01DFF824E14FEA1154CC
:10380000A4EB135C1EEA430F18BF9EEA445F73D01B
:1038100023EA0E03DCF1200E21EA045143F4801365
:1038200032D322FA0CFE10EB0E0023FA0CFE41EB11
:103830000E01CCF1200E03FA0EFE10EB0E0051F13A
:103840000001B1F5801FCCF1200E32D201EB045102
:1038500012FA0EF2BDE8104058BF7047401C38BF46
:103860005FEA420218BF7047002814BF20F0010031
:1038700041F100014FEA410313F5001F38BF7047C3
:10388000A1F1C04100F06EBB012A43EB0302ACF191
:10389000200CDCF11F0E32BF4FF0000E23FA0CF3A8
:1038A00010EB030041EB0451B4EB115FD0D0A1EB5E
:1038B000045101F5801149085FEA300001EB045121
:1038C0000ED350F1000038BF12FA0EFE08D1BDE849
:1038D0001040C9E7401C38BF5FEA4202CAD1C3E7C3
:1038E000BDE810404FEA410313F5001F38BF704791
:1038F000A1F1C04100F036BB9EEA445F08D011EA56
:103900005E0FBDE8104004BF01F000410020704789
:10391000BDE8104070B500F0D7FA00BF64FBBE3EB2
:103920000000E0FF491058BFC1F140415B1058BF93
:10393000C3F140438B42EFF3008070472DE9C04153
:1039400030B4DFF8A0C23CEA111418BF3CEA1314EB
:1039500000F0EC8081EA03051CEA111444EAD574F6
:1039600018BF1CEA131500F0C780A4EB05044FF044
:10397000004545EAC12145EAC32341EA505143EAE3
:10398000525304F17F74994204F500344FEAC02089
:103990004FEAC22208BF904200F09C804FEA1365B4
:1039A0000FF24016765D4FEA134506FB05F7C7F1A7
:1039B000807706FB07F74FEAD737A7FB0368764205
:1039C000C8F58038A7FB06CE38BFA8F1010807FB71
:1039D00008E64FF0000EA6FB028CE6FB03CEDCF1FE
:1039E000000CCEF1004E38BFAEF1010EA6FB0C5814
:1039F0004FF000074FF00005E6FB0E87A1FB08C65D
:103A0000A0FB07CE16EB0E0645F10005E1FB0765AE
:103A100015F1E04E7EBFA4F580345FEA46066D41A5
:103A200016F1800745F100054FEA17274FEA0666B1
:103A300047EA0567A6F1DE46B6F1805F4FEA152535
:103A40001FD9384624F0010C05EBC471BCF1FE6FA0
:103A500001EB0C1102D8F0BCBDE8008124425CBF30
:103A600001F5801E9EEAC47F02D4F0BCBDE800814F
:103A7000244238D4F0BCA1F1C041BDE8004100F0BF
:103A800071BA4FEAD22242EA43524FEAD323A7FB4C
:103A900002864FEAD02040EA415007FB03661EEA47
:103AA0000E0F4FEAD12105FB026658BFA6EB005668
:103AB000B6EB00564FEA520E4EEAC37E18EB0E0EDE
:103AC00056EB530EBDD518EB02085E417F1C55F135
:103AD0000005B6E74FF480154FF000074FF00006E1
:103AE0004FF00008ADE7F0BC4FF0000001F1C0411D
:103AF00001F00041BDE8008111EA0C1F0CEA13152A
:103B000000D00CE013EA0C1F00F025804FF00000FD
:103B1000F0BC81EA030101F00041BDE80081F0BC86
:103B2000BDE8004181EA030100F01CBAF0BCBDE829
:103B3000004170B500F0C8F9097EFC3E00F007B8FE
:103B400081EA03014FF0000001F00041704781EA73
:103B5000030100F007BAF0BCBDE800414FF00000DF
:103B600021497047FFFDFBF9F7F5F4F2F0EEEDEBBC
:103B7000E9E8E6E4E3E1E0DEDDDBDAD8D7D5D4D36B
:103B8000D1D0CFCDCCCBCAC8C7C6C5C4C2C1C0BFB7
:103B9000BEBDBCBBBAB9B8B7B6B5B4B3B2B1B0AFBD
:103BA000AEADACABAAA9A8A8A7A6A5A4A3A3A2A1A1
:103BB000A09F9F9E9D9C9C9B9A999998979796955C
:103BC00095949393929191908F8F8E8E8D8C8C8BF8
:103BD0008B8A898988888787868585848483838280
:103BE000828181800000FF070000F87F4FEA4103D7
:103BF0004FEA5353A3F58063D3F11E03C8BFD3F13B
:103C0000210C0CDD4FF0004242EAC12242EA505240
:103C100032FA03FC8CEAE17CACEBE1707047102BCC
:103C2000C4BF0020704703F5787CBCF1FF3F04D08F
:103C30006FF0004282EA2100704770B500F044F94D
:103C40004992248000207047F2E700004FEA1153A8
:103C5000A3F58063D3F11E03A8BFD3F1200C08DBCA
:103C60004FF0004242EAC12252EA505232FA03F0C7
:103C7000704709420BD4102BC4BF0020704703F5D6
:103C8000787CBCF1FF3F05D04FF0FF3070474FF01C
:103C90000000704770B500F017F900BF499224800A
:103CA00000207047F0E710F0004248BF4042B0FAF1
:103CB00080F310FA03F10AD0C3F11D0303F580630A
:103CC0004FEA415002EB035202EBD12170474FF013
:103CD00000007047B0FA80F310FA03F10AD0C3F184
:103CE0001D0303F580634FEA41504FEA035202EB94
:103CF000D12170474FF000007047000051EA030CDB
:103D000017D41CF5801F58BFBCF5801F00F106803A
:103D1000994218BF704708BF9042704707D711F506
:103D2000801F58BF13F5801F19D4994270478942EC
:103D300070471CF5801F08D5BCF5801FF7D58B4256
:103D400018BF704708BF824270474FF4001C1CEB3D
:103D5000410F38BF1CEB430F01D28B42704770B547
:103D600000F0B2F8922449004FF000514FF0805318
:103D7000FFF7D8BDDFF848C170B51CEA111E1EBFA1
:103D80001CEA13159EEA0C0F95EA0C0F00F06F80E9
:103D900081EA030423EA4C134EEAD47E21EA4C1153
:103DA00041F4801143F48013AE44A1FB024CA0FB0C
:103DB0000365AEF17F7E361955EB0C05A1FB034C74
:103DC0004CF10003A0FB021C16EB0C06654153F1FD
:103DD0000003094218BF46F0010613F4007F0BD11F
:103DE0004FEA03314FEA0530340341EA155140EA06
:103DF00016506FF003020AE04FEAC3214FEAC520D4
:103E0000F40241EA555140EA56506FF0020202EBCB
:103E10002E4201EB025585EACE710AD05FEA440CCE
:103E200018BF24F0004450F1000041F1000120EAE5
:103E3000D47040F2FE7C624500D270BDA84214BF2F
:103E40004FF080444FF04044002E08BF0024BEF1E4
:103E5000806FA8BFA1F1C041BDE8704080F28280B0
:103E60004FF0000001F1C04101F0004170479EEAAF
:103E70000C0F0CEA131518BF95EA0C0F06D04FF083
:103E8000000081EA030E0EF0004170BD00F01CF846
:103E90008900013E00F007B800F009B84FEA430C72
:103EA0005FEA5C5C08D081EA030100F05BB84FEA8E
:103EB000410C5FEA5C5CF6D14FF0000001497047AD
:103EC0000000FF070000F87F0EF1020E2EF0030E37
:103ED0005EF8046B364205D4012A43EB030515F561
:103EE000001F12D8012841EB010C1CF5001F0CD853
:103EF0000ED14FEAD17C15F5001F0CEB4C0C0CF1E8
:103F0000020C08BF4CEBD37C04E04FF0080C01E03E
:103F10004FEAD37C0CEB4C0526FA05F606F00706B3
:103F2000B6F1040C06D20EEB860CBDE870404CF0E6
:103F3000010C6047DFE80CF0090B02024FF0004172
:103F40004FF00000A1F5002170BD19461046012870
:103F500051EB010418BFD4F5001484BF002001F018
:103F6000004170BD0808A0F500114FEA310170470B
:103F700053EA010C17D41CF5801F58BFBCF5801FF5
:103F800000F106808B4218BF704708BF824270471D
:103F900007D713F5801F58BF11F5801F19D48B4226
:103FA00070479B4270471CF5801F08D5BCF5801FE9
:103FB000F7D5994218BF704708BF904270474FF439
:103FC000001C1CEB430F38BF1CEB410F01D2994280
:103FD00070470FB40CBC03BCFFF7C1BE5FEA410CD5
:103FE0005FEA5C5CACF580635B1C39D4D3F13402CE
:103FF00040F34580B2F1200314DA4FF0010C0CFAC3
:1040000002FCACF101030340B3EB5C0220EA0300C5
:1040100008BF10EA0C0F98BF704710EB0C0041F17D
:10402000000170470AD0C3F1200201FA02FC012806
:1040300021FA03F101FA03F14CF100004FF0010CF9
:104040000CFA03FCACF10103B0F1004F21EA0301CB
:1040500008BF11EA0C0F4FF0000088BF61447047A1
:10406000B3F1FF3F28BF50EAC12C01F000414FF0EF
:10407000000084BF41F07C5141F470017047B3F5FA
:10408000806FB8BF704770B5FFF71EFF40DBB6BE4C
:1040900010B591EA030F48BF83F000433FF5A2AB90
:1040A000841A71EB030C07D212198CF0004C43EB0D
:1040B0000C03001B61EB0C01DFF8A4E14FEA115483
:1040C000A4EB135C1EEA430F18BF9EEA445F00F0A6
:1040D000B08023EA6E03524221EA0451C3EB6E031F
:1040E00038BF5B1EDCF1200E25D322FA0CFE10EB4C
:1040F0000E0043FA0CFE41EB0E01CCF1200E03FA48
:104100000EFE10EB0E0051F10001CCF1200E29D46F
:1041100012FA0EF201EB0451BDE8104058BF70478F
:10412000401C1CBFB2F1004F704700280CBF491C57
:1041300020F00100704712EB020E43EB030218BFA0
:104140004FF0010E4EEA4202ACF1200CDCF11E0EE3
:1041500054D943FA0CFE10EB0E0051F1FF31CCF1B3
:104160001E0ED5D50EF1010E12FA0EFE404141EBA6
:10417000010101EB445C5FEA5C5C10D910EBDE707E
:1041800001EB045138BFBEF1004FBDE8104018BF2D
:10419000704700280CBF491C20F00100704730D246
:1041A0004FEAD42C11F5001124F400641BD0B1FAAD
:1041B00081F20B3AA41AA41ED2F12003914030FAE6
:1041C00003F31943904001EBCC71002C01EB045137
:1041D000BDE81040A8BF704701F1C0414FF000009A
:1041E00001F000417047B0FA80F310FA03F100D1FA
:1041F00010BDE41A173C4805C90AE4E701EB045175
:1042000010BD491001EB0451BDE810404FEA3000E9
:1042100002E04FF0000170474A0008BF0042F8D0AA
:10422000B2F5001F28BF704701F000414FF00000B9
:1042300070479EEA445F07D011EA5E0FBDE8104068
:1042400004BF002100207047BDE8104070B5FFF7A3
:104250003BFE00BF40DFF63E83F000411046704752
:104260000000E0FF4FF04070E1EE100A7047656318
:10427000686F2068656C6C6F20776F726C640D0AD4
:104280000000000000010203040102030406070805
:104290000900000000000000417574196F240F40F0
:1042A0002EBAACDA271210404032C4C178C6104092
:1042B000661330AC68461140E029CEF6B9FA1140D9
:1042C0000101CEFEA97A12408021D82BFB2E13408B
:1042D0002019E2603C631440C010EC957D971540B6
:1042E0006008F6CABECB164000000000006063C044
:1042F00000000000006063C000000000006063C0B8
:1043000000000000006063C000000000006063C0A7
:1043100000000000006063C000000000006063C097
:1043200000000000006063C000000000006063C087
:1043300000000000006063C00000000000C062C018
:104340000000000000C062C00000000000C062C0A9
:104350000000000000C062C00000000000C062C099
:104360000000000000C062C00000000000C062C089
:104370000000000000C062C00000000000C062C079
:104380000000000000C062C020AEA036E07D0B3708
:10439000A017083660F0AF3660F0AF36403D2E36DD
:1043A000C0AFD235000D993620A5633680A33137D2
:1043B0004061223760DE353640466B36A032BF366C
:1043C000A032BF36A00ECB35E0625436A044393758
:1043D000A00ECB35809AF436001F1337E050DA3543
:1043E00040466B36809AF43680A33137807F3D3665
:1043F0000016D636A03BFC36C0C14C36809AF43647
:1044000060DE353680A33137809AF4368091B73636
:1044100060022A3700FB1E3660F0AF36A044393701
:10442000209C2636000D993660D5F835000D99365A
:10443000C0AFD2354034F135C0CA893640466B36FC
:10444000C0B80F36807F3D36A044393760022A3726
:10445000C0C14C36303132333435363738394142C9
:1044600043444546403058003031323334353637D6
:104470003839616263646566403078009C440008A6
:1044800000000020BC000000C401000858450008DE
:10449000BC0000205C0C0000E001000800000000EF
:1044A00000000000007A030A000000000000000085
:1044B00000000000000000000000000000000000FC
:1044C0000000000000010101000000008000000069
:1044D00000000000000000000000000000000000DC
:1044E000000000008050DE1914060A0401000000DC
:1044F00008000000640000006400000015000000D7
:104500000000000020000000000000010101000088
:10451000000000000000000000000000000000009B
:10452000000000000000000000000000000000008B
:104530000000000000000000000000008025DB33C8
:104540008025000050C3000014000000A086010078
:08455000F04902000101FF0027
:040000050800018965
:00000001FF
