:020000040800F2
:10000000C00800202D0200086F1200080712000827
:100010006D120008ED030008C91700080000000079
:100020000000000000000000000000009312000823
:10003000EF0300080000000091120008F912000808
:10004000470200084702000847020008470200086C
:10005000470200084702000847020008470200085C
:10006000470200084702000847020008470200084C
:10007000470200084702000847020008470200083C
:10008000470200084702000847020008470200082C
:10009000470200084702000847020008470200081C
:1000A000470200084702000847020008470200080C
:1000B00047020008511300084702000847020008E1
:1000C00047020008470200084702000847020008EC
:1000D00047020008470200085D17000847020008B1
:1000E00047020008470200084702000847020008CC
:1000F00047020008470200084702000847020008BC
:1001000047020008470200084702000847020008AB
:10011000470200084702000847020008470200089B
:10012000470200084702000847020008470200088B
:10013000470200084702000847020008470200087B
:10014000470200084702000847020008470200086B
:10015000470200084702000847020008470200085B
:10016000470200084702000847020008470200084B
:10017000470200084702000847020008000000008C
:10018000470200084702000800F002F800F03EF8BD
:100190000AA090E8000C82448344AAF10107DA45E2
:1001A00001D100F033F8AFF2090EBAE80F0013F0F6
:1001B000010F18BFFB1A43F001031847681700002E
:1001C00088170000103A24BF78C878C1FAD85207BF
:1001D00024BF30C830C144BF04680C6070470000C1
:1001E0000023002400250026103A28BF78C1FBD840
:1001F000520728BF30C148BF0B60704700207047CE
:100200001FB501F081FB1FBD10B510BD00F0A6F8B1
:100210001146FFF7F5FF01F017FB00F0C4F803B437
:10022000FFF7F2FF03BC01F0D0FA00000948804755
:1002300009480047FEE7FEE7FEE7FEE7FEE7FEE7C8
:10024000FEE7FEE7FEE7FEE704480549054A064BE0
:1002500070470000FD12000889010008C00100205D
:10026000C0080020C0040020C00400207047000027
:100270000FB4044910B503AA029800F03DF810BC71
:100280005DF814FB100000202DE9F0410E460446F5
:10029000002020622046E168884730B3252805D039
:1002A000D4E901219047206A401CF2E7E16820462A
:1002B00000278847050018D0A5F14100192802D869
:1002C00020354FF400673246294620462760FFF765
:1002D00095FF40B1012804D0F61D26F00706083628
:1002E000D8E7361DD6E72846DAE7206ABDE8F08170
:1002F0007047704770477047074B70B50D467B4499
:1003000000F011F80446284600F020F810B14FF034
:10031000FF3070BD204670BD2F15000001694A1CDA
:1003200002610878704700B58FB0CDE90131002136
:10033000059105497944CDE9031011466846FFF758
:10034000A3FF0FB000BD0000E5FFFFFF007B00F042
:1003500080007047004870475C0100207546FFF739
:10036000F9FFAE4605006946534620F00700854672
:1003700018B020B5FFF768FFBDE820404FF0000639
:100380004FF000074FF000084FF0000B21F007017D
:10039000AC46ACE8C009ACE8C009ACE8C009ACE8C0
:1003A000C0098D4670470446AFF300802046FFF732
:1003B00036FF00000B484FF47A710068B0FBF1F093
:1003C000401EB0F1807F0BD24FF0E0214861064A19
:1003D000F02082F8140D0020886107200861704722
:1003E000FEE70000000000200FE000E0FEE770479D
:1003F0002DE9F84FDFF89491002209F1040A0AF17F
:10040000040B4FF00F080BF1040E01260B68964009
:100410003340B34271D14C68022C01D0122C11D15F
:10042000D40800EB84073D6A5407E40E08FA04FC84
:1004300025EA0C05D1F810C00CFA04FC4CEA050CB6
:10044000C7F820C007685400032591F804C0A540F0
:100450000CF0030CAF430CFA04FC4CEA070CC0F898
:1004600000C04F68012F05D0022F03D0112F01D0FB
:10047000122F11D18768D1F80CC0AF430CFA04FCDD
:100480004CEA070CC0F808C04768B7430E79C6F3BA
:10049000001696403E434660C668AE438D68A54050
:1004A0003543C5604C68E4006AD5394C256845F48D
:1004B00080452560246822F0030504F480440094FC
:1004C000344C2544D5F808789407260F08FA06F42A
:1004D000A743314CA04201D1002429E02F4CA04277
:1004E00001D1012424E02E4CA04201D102241FE0BE
:1004F0002C4CA04202D103241AE041E02A4CA04235
:1005000001D1042414E0294CA04201D105240FE0BC
:10051000274CA04201D106240AE0264CA04201D17A
:10052000072405E0244CA04201D1082400E009245E
:10053000B4403C43C5F80848D9F800404D464E68E1
:100540009C43F60300D51C432C60DAF80040554666
:100550004E689C43B60300D51C432C60DBF800407A
:100560005D464E689C43F60200D51C432C60DEF8C5
:10057000004075464E689C43B60200D51C432C6073
:10058000521C102AFFF441AFBDE8F88F003C014037
:1005900044380240003001400000024000040240A4
:1005A00000080240000C024000100240001402400B
:1005B00000180240001C02400020024042694A40EC
:1005C000426170470AB1816170470904FBE700008E
:1005D00001480068704700000400002002480168DC
:1005E000491C016070470000040000200B4810B552
:1005F000016841F400710160016841F480610160AB
:10060000016841F480710160052000F049F80F2075
:1006100000F006F800F015F8002010BD003C024084
:1006200010B5044600F052F94FF47A71B0FBF1F0C6
:1006300000F064FB00222146501E00F011F800205B
:1006400010BD08B50020009008BD00F01F02012178
:1006500091404009800000F1E020C0F8001170478F
:10066000F0B40E4B1B68C3F30223C3F10704042C40
:1006700000D904241D1D072D01D2002300E0DB1E3C
:10068000012606FA04F56D1E0D409D409E40761E23
:10069000164045EA0601F0BC00F0EABD0CED00E0B2
:1006A000064A00F0070110684FF6FF03184040EAC1
:1006B0000120034908431060704700000CED00E082
:1006C0000000FA052DE9F05FDFF8F8A104460F46B7
:1006D000DAF80000DFF8F08100F00F02C8B27A49C2
:1006E000814641F2883608F10808BA4261D20246D2
:1006F0008AF80020DAF8000000F00F00B8427DD13F
:100700002078800707D5D8F80020A36822F0F002EF
:100710001A43C8F800202078C0072DD0606801284F
:100720001AD002281BD0032819D00968890700298C
:1007300064DAD8F80010474621F003010143C8F8F5
:100740000010FFF745FF0546606801280FD002281A
:1007500018D003281CD027E009688903E7E7096857
:100760008901E4E7FFF734FF401BB04258D83868EE
:10077000C0F381000128F5D188E0FFF729FF401B75
:10078000B0424DD83868C0F381000228F5D17DE031
:100790003868FFF71DFF401BB042F9D940E0FFF772
:1007A00017FF401BB0423BD8386810F00C0FF6D151
:1007B0006CE02078800707D5D8F80020A36822F0E5
:1007C000F0021A43C8F800202078C0074CD06068B7
:1007D000012828D0022829D0032827D009688907B2
:1007E000002949DAD8F8002022F003020243C8F8B1
:1007F0000020FFF7EDFE0546606800E03CE00128C0
:100800001DD0022829D0032838D0B3464646306888
:1008100010F00C0F28D0FFF7DBFE411B5945F6D92D
:100820000320BDE8F09F09688903D9E709688901B9
:10083000D6E7FFF7CDFE411B594502D9F0E7B34695
:1008400046463068C0F381000128F2D10CE0FFF782
:10085000BFFE411B594502D9E2E7B3464646306820
:10086000C0F381000228F2D18AF80090DAF8000083
:1008700000F00F00B84209D00120D2E744462068BA
:10088000FFF7A6FE401BB042F9D9C9E72078400720
:1008900007D5D8F80010E26821F4E0511143C8F8F8
:1008A00000102078000708D5D8F80010226921F43C
:1008B000604141EAC201C8F800100F20FFF7B0FE06
:1008C0000020AEE7003C02400038024010B500F0C6
:1008D00043F808490968F02292FAA2F201F0F00107
:1008E000B2FA82F2D140044A515CC8400349086020
:1008F00010BD000008380240121900080000002056
:1009000010B5FFF7E3FF074909684FF4E05292FA88
:10091000A2F201F4E051B2FA82F2D140024A515CF3
:10092000C84010BD083802401219000810B5FFF782
:10093000CDFF074909684FF4604292FAA2F201F430
:100940006041B2FA82F2D140024A515CC84010BD07
:10095000083802401219000830B51948006810F034
:100960000C01184812D0441004290ED008290DD1CA
:10097000134A121F1168136801F03F015D0247F628
:10098000C07304D5B4FBF1F003E0204630BDB0FBEA
:10099000F1F01168194093FAA3F3B3FA83F3D94045
:1009A000484311684FF4403292FAA2F201F4403108
:1009B000B2FA82F2D140491C4900B0FBF1F030BDDF
:1009C000083802400024F4002DE9F84F044600786E
:1009D000DFF8FCA2BF4DC0074FF0000648D0DAF8A0
:1009E00000105046C1F38101012908D00068C0F30E
:1009F000810002280AD1281D0068400206D5286817
:100A0000800335D56068002873D031E0DFF8C492E8
:100A100009F1020989F80060FFF7DAFD074641F2A3
:100A2000883804E0FFF7D4FDC11B41457AD8286817
:100A30008003F7D4207989F80000606860B1FFF77F
:100A4000C7FD074604E0FFF7C3FDC11B4145EDD8D4
:100A500028688003F7D50BE0FFF7BAFD074604E0EE
:100A6000FFF7B6FDC11B4145E0D828688003F7D4E5
:100A70002078DFF86492800744D5DAF800105046F9
:100A800011F00C0F4FF0F80809D00068C0F3810096
:100A900002280BD18E48001F0068400206D4286847
:100AA000800714D5E068012823D110E0E068D0B1B8
:100AB0000120C9F80000FFF78BFD074604E0FFF7AF
:100AC00087FDC01B6428B1D828688007F7D528683F
:100AD00098FAA8F22169B2FA82F220F0F800914067
:100AE000084328600EE0C9F80060FFF771FD074673
:100AF00005E0EAE0FFF76CFDC01B642812D8286807
:100B00008007F7D42078000725D5DFF8C481734823
:100B1000616908F16C0881B101210160FFF758FD9E
:100B2000074605E07EE0FFF753FDC01B642879D837
:100B3000D8F800008007F6D50DE00660FFF748FD05
:100B4000074604E0FFF744FDC01B64286AD8D8F8C4
:100B500000008007F6D42078400753D55C48383031
:100B6000016841F0805101600068DFF8748100F095
:100B700080500090D8F8001041F48071C8F800103F
:100B8000FFF726FD074604E0FFF722FDC01B64289F
:100B900048D8D8F80000C005F6D5DFF834B10BF11D
:100BA000680B8BF80060FFF713FD074641F28838A9
:100BB00004E0FFF70DFDC11B41457ED8DBF80000C6
:100BC0008007F6D4207A8BF80000A06868B1FFF7A0
:100BD000FFFC074604E0FFF7FBFCC11B41456CD856
:100BE000DBF800008007F6D50CE0FFF7F1FC0746C4
:100BF00004E0FFF7EDFCC11B41455ED8DBF80000C7
:100C00008007F6D4A069E8B3DAF80010C1F38101D7
:100C100002295AD0022806D0C9F86060FFF7D8FC34
:100C200004464DE049E04F46C9F86060FFF7D0FC4C
:100C3000064604E0FFF7CCFC801B64283DD82868FA
:100C40008001F7D4D4E90701084347F6C07191FA4F
:100C5000A1F1626AB1FA81F18A40A16A4FF0FF33D3
:100C600003EB51014FF4403393FAA3F3B3FA83F348
:100C700099400A4310434FF0706292FAA2F2B2FA1E
:100C800082F200E01FE0E16A914008431049091F29
:100C9000086001203866FFF79BFC044604E0FFF77C
:100CA00097FC001B642808D828688001F7D50AE063
:100CB000FFF78EFC001B642802D90320BDE8F88FE3
:100CC00028688001F4D40020F8E70120F6E700004E
:100CD000083802400038024000004742800E474278
:100CE000007000404FF0E0210428086903D020F094
:100CF00004000861704740F00400FAE710B5401E98
:100D0000B0F1807F01D3012010BD4FF0E02460617D
:100D10000F21601700F0ACFA0020A06107202061CD
:100D2000002010BD7047704710B5040003D094F840
:100D3000390010B107E0012010BD002084F8380010
:100D4000204600F00DF8022084F83900211D2068AB
:100D500000F01AFB012084F83900002010BD0000CB
:100D600008B500680B49884212D10B48016841F070
:100D7000020101600068032200F0020000900121DE
:100D80001D20FFF76DFCBDE808401D20FFF75DBC8E
:100D900008BD000000040040403802400168CA68F5
:100DA00042F00102CA600068016841F0010101607F
:100DB00000207047704770B50446006801694FF025
:100DC0000005C943890715D4C168C943890711D4EF
:100DD000E91E016101202076206880698007204695
:100DE00002D0FFF7E7FF04E000F098F8204600F09B
:100DF00096F8257620680169C943490717D4C16868
:100E0000C943490713D46FF0040101610220207621
:100E10002068806910F4407F204602D0FFF7CAFFA7
:100E200004E000F07BF8204600F079F82576206891
:100E30000169C943090716D4C168C943090712D417
:100E40006FF008010161042020762068C0698007E6
:100E5000204602D0FFF7AEFF04E000F05FF8204626
:100E600000F05DF8257620680169C943C90617D4EA
:100E7000C168C943C90613D46FF01001016108208D
:100E800020762068C06910F4407F204602D0FFF72A
:100E900091FF04E000F042F8204600F040F825768B
:100EA00020680169C943C90708D1C168C943C90796
:100EB00004D1891E0161204600F032F820680169E2
:100EC000C943090609D4C168C943090605D46FF0AE
:100ED000800101612046FFF725FF20680169C943B1
:100EE000490609D4C168C943490605D46FF04001D9
:100EF0000161204600F02CF820680169C943890689
:100F00000BD4C168C943890607D46FF02001016181
:100F10002046BDE87040FFF706BF70BD70477047C0
:100F2000084988420AD10849D1F8B40238B10020F2
:100F3000C1F8B40205480168491C016070470120EE
:100F4000F6E700002001002000804042140000204D
:100F50007047704738B5016804460868CA68C0F32E
:100F6000000002F4807238B132B10868486800901D
:100F7000E06B40F00100E06308684A69C0F340009C
:100F800002F0010238B132B1086848680090E06BA5
:100F900040F00400E06308684A69C0F3800002F092
:100FA000010238B132B1086848680090E06B40F047
:100FB0000200E06308684A69C0F3C00002F0010261
:100FC00038B132B1086848680090E06B40F0080022
:100FD000E0630868C968C0F3401001F0200118B14F
:100FE00011B1204600F030FA20680168C068C1F3F2
:100FF000C01100F0800019B110B1204600F032FBA2
:1010000021680868CA68C0F3801002F04002012518
:1010100068B162B1CA68204622F04002CA6094F802
:10102000391032290CD080F8395000F0EBF8E06B21
:10103000002804D084F839502046FFF78AFF38BDD5
:10104000222180F83910F0E770B5040004D094F83C
:101050003900002510B106E0012070BD84F8385039
:10106000204600F021F8022084F839002068C16889
:1010700021F40051C160204600F03AFA206801696D
:1010800021F4904101612068416921F02A01416108
:101090002068C16841F40051C160E563012084F813
:1010A0003900002070BD000030B5044600681F49BB
:1010B00087B0884238D11E48016841F001010160C3
:1010C000006800F00100059019481030016841F4F3
:1010D000003101600068012100F400300590042017
:1010E00000900220CDE9010103900720114D0490EA
:1010F00069462846FFF77CF9082000906946284693
:10110000FFF776F92068C16821F04001C1602068CE
:10111000C16841F02001C1602620FFF796FA032242
:1011200011462620FFF79CFA07B030BD004400406E
:1011300030380240000002402DE9F047044690F8A4
:10114000390099460D46012801D0122857D125B300
:101150001AB394F83800012851D0012684F8386079
:101160000027E76394F83900122819D0222084F868
:101170003900A285E2854FF48058E08D4B46401E31
:10118000E085A0684FF0000240454FF02001204666
:1011900016D100F09AFAB0B904E00120BDE8F0875A
:1011A0003220E4E7206900282068406803D0C1B2FB
:1011B00025F8011B12E0C0F3080125F8021B0DE021
:1011C00000F083FA08B10320E8E7206900282068CE
:1011D000406801D000F07F0005F8010BE08D002889
:1011E000CBD194F83900322805D084F8396084F8DE
:1011F00038700020D2E7122084F83900F7E7022087
:10120000CCE770477047FEE7164810B5016886B016
:1012100041F0080101600068134C00F008000590DF
:101220004FF4704000900120019002900320039041
:1012300069462046FFF7DCF8012211032046FFF73C
:10124000C1F9012251032046FFF7BCF901229103A5
:101250002046FFF7B7F90122D1032046FFF7B2F984
:1012600006B010BD30380240000C0240FEE7704767
:101270000907090E002806DA00F00F0000F1E0204F
:1012800080F8141D704700F1E02080F800147047CA
:101290007047704770B5174C92B00025266846F02D
:1012A0008056266024680DF1240C04F080541194BB
:1012B000012400940194022406948CE80D00660534
:1012C000CDE907616846FFF77FFB00B1FEE70CA997
:1012D0000F2081E831004FF4A0500F904FF4805060
:1012E000109005210CA8FFF7EDF9002800D0FEE7CB
:1012F00012B070BD40380240FFF770B91048016865
:1013000041F4700101600F48016841F00101016082
:101310000C4A00210832116002680B4B1A4002602F
:10132000031D0A4A1A60026822F4802202600548FE
:101330000C3001600249580680390860704700008F
:1013400088ED00E000380240FFFFF6FE1030002478
:101350000148FFF730BD000020010020094A10B508
:10136000074BC2E900310021C2E9021010461161A9
:10137000FFF7DAFCBDE810400248FFF70FBD0000A0
:101380000004004020010020F0B50268234D244EE7
:10139000244FDFF894C0254B4FF0804EA84209D06F
:1013A000704507D0B04205D0B84203D0604501D0A7
:1013B000984203D122F070044A682243A8421BD00D
:1013C000704519D0B04217D0B84215D0604513D03F
:1013D000984211D0164CA0420ED0164CA0420BD011
:1013E000154CA04208D0154CA04205D0144CA04288
:1013F00002D0144CA04203D122F44074CA682243A4
:1014000002608A68C2620A688262A84201D0984279
:1014100001D10969016301214161F0BD0000014072
:101420000004004000080040000C0040000401409F
:1014300000400140004401400048014000180040C5
:10144000001C00400020004010B590F839102229FF
:1014500003D0322901D0022010BD8168B1F5805F30
:1014600011D00169002901681FD0496801F07F038C
:10147000816A4A1C82620B70C18D491E0904090CE5
:10148000C18518D02FE00269816A002A026852687B
:1014900005D0D2B20A80816A491C8162ECE7C2F3AE
:1014A00008020A80816A891CF7E74A68816A4B1C36
:1014B00083620A70E0E70168CA6822F02002CA600D
:1014C00090F83910322910D00168CA6822F480726D
:1014D000CA6001684A6922F001024A61012180F86C
:1014E0003910FFF78EFE002010BD1221F7E7000033
:1014F0002DE9F041044600680169E26821F4405199
:101500000A4302612068C16849F20C629143236971
:10151000A268E5691A4363692B431A430A43C26010
:101520002068416921F44072A16911434161E06979
:1015300064263225B0F5004F484A494920681DD03D
:10154000884201D0904269D1FFF7F0F900EBC00169
:1015500001EB00106168B0468900B0FBF1F1B1FB0E
:10156000F8F6FFF7E3F900EBC00101EB001061684A
:101570008900B0FBF1F7FFF7D9F968E0884201D0A4
:10158000904219D1FFF7D2F900EBC00101EB001036
:101590006168B0464900B0FBF1F1B1FBF8F6FFF726
:1015A000C5F900EBC00101EB001061684900B0FB18
:1015B000F1F7FFF7BBF918E0FFF7A2F900EBC00164
:1015C00001EB00106168B0464900B0FBF1F1B1FBDE
:1015D000F8F6FFF795F900EBC00101EB0010616828
:1015E0004900B0FBF1F7FFF78BF900EBC00101EB0D
:1015F000001061684900B0FBF1F1B1FBF8F06FF049
:101600001801484307EB800005EB0011B1FBF8F02F
:10161000216866F31F108860BDE8F081FFF770F95C
:1016200000EBC00101EB00106168B0468900B0FB1F
:10163000F1F1B1FBF8F6FFF763F900EBC00101EB44
:10164000001061688900B0FBF1F7FFF759F900EB72
:10165000C00101EB001061688900CCE70014014073
:101660000010014090F83910122903D0322901D01E
:10167000022070478168B1F5805F016A0BD04A1C77
:101680000262026809785160C18C491E0904090C84
:10169000C1840ED017E009880268C1F308015160C7
:1016A00001690029016A02D0491C0162ECE7891C2A
:1016B000FBE70168CA6822F08002CA600068C1685E
:1016C00041F04001C160002070472DE9F0471D4600
:1016D00090460F460446FEF77BFF06465FEA080089
:1016E0004FF000094FF0010808D030E0681C05D029
:1016F00095B1FEF76DFF801BA8420DD820680068E9
:1017000037EA0000F2D127E0681C20D025B1FEF7AF
:101710005FFF801BA8421AD92068C16821F08001B0
:10172000C1602068C16821F02001C1602068C168E3
:1017300021F48071C1602068416921F0010141619B
:1017400084F8398084F838900320BDE8F087206859
:10175000006837EA0000D7D00020F6E738B518480F
:1017600000680068C043800622D44FF47A730122D7
:1017700069461348FFF7E0FC124A1088010417D4A9
:1017800041049DF800104FF0000304D50A290ED142
:1017900040F4004012E00D290ED0C0F30D04084DB6
:1017A000401CC83D80B229551080C72800D913803D
:1017B0000348FFF7CFFB38BD40F480401080F7E7C7
:1017C000E00000200C000020FEE7704710B5044642
:1017D0000420FFF787FA0148046010BD08000020CC
:1017E00070B5054600244FF47A7603E0304600F0E9
:1017F00005F8641CAC42F9D370BD000070B54FF021
:10180000E02500216C69094AAB6912685043AA6956
:101810009A42FCD002D2A3EB020302E0A4EB020640
:101820003344194413468142F1D370BD08000020AF
:1018300004490A681206FCD5024AC1B2121D1160A1
:101840007047000000440040FEF7D0FE072302224C
:1018500008214FF4A870FFF71DFDFFF737F84FF48C
:101860007A71B0FBF1F0FFF749FAFEF7A3FD42F2FF
:10187000CF010920FFF772FD4FF4E13000F032F89C
:10188000A820FFF7A3FF0A20FFF7AAFFFFF7BCFC81
:101890000C4D4FF480546420FFF7A2FF0AA0FEF71E
:1018A000E7FC0120FFF79CFF0CA0FEF7E1FC012004
:1018B000FFF796FF0AA0FEF7DBFC21462846FEF75D
:1018C0007DFEE8E7000C0240CED2C3C7B5C4CAC053
:1018D000BDE768656C6C6F0D0A000000310D0A00F1
:1018E000320D0A000749064AC1E90020002088603D
:1018F000C860086188610C2048610846FFF7A4BBF6
:1019000000440040E00000204FF04070E1EE100A7B
:1019100070470000000001020304010203040607EF
:101920000809000044190008000000201800000009
:10193000C40100085C19000818000020A808000075
:10194000E0010008007A030A000000000000000027
:0C1950000000000000000000000000008B
:040000050800018965
:00000001FF
